:020000022000DC
:10700000C0440020D58802006D6D0300C1880200D5
:10701000C1880200C1880200C1880200000000008F
:107020000000000000000000000000009D89020038
:10703000C18802000000000039890200C1880200F6
:107040006D8B020075F302006D8B02006D8B0200E8
:107050006D8B02006D8B02006D8B02006D8B020048
:107060006D8B02006D8B02006D8B02006D8B020038
:107070006D8B02006D8B02006D8B02006D8B020028
:107080006D8B02006D8B02006D8B02006D8B020018
:107090006D8B02006D8B02006D8B02006D8B020008
:1070A0006D8B02006D8B02006D8B02006D8B0200F8
:1070B0006D8B02006D8B02006D8B02006D8B0200E8
:1070C0006D8B02006D8B02006D8B02006D8B0200D8
:1070D0006D8B02006D8B02006D8B02006D8B0200C8
:1070E0006D8B02006D8B02006D8B02006D8B0200B8
:1070F0006D8B02006D8B02006D8B02006D8B0200A8
:1071000053B94AB9002908BF00281CBF4FF0FF310E
:107110004FF0FF3000F00CB8ADF1080C6DE904CE73
:1071200000F01AF8DDF804E0DDE9022304B070474E
:10713000704700BF10F8012B11F8013B012A28BF4E
:107140009A42F7D0D01A7047034611F8012B03F882
:10715000012B002AF9D170472DE9F04786468C466D
:107160000846089E154674461946002B40F0C2801A
:107170008542B2FA82F245D94AB1C2F1200300FA3F
:1071800002FC2EFA03F3954043EA0C0C94404FEABC
:10719000154EA8B2BCFBFEF8230C0EFB18CC08FB66
:1071A00000F943EA0C43994528D9EB1808F1FF3759
:1071B00004D2994502D9A8F102072B44A3EB090395
:1071C000A4B2B3FBFEFC0EFB1C330CFB00F044EA44
:1071D0000344A04214D92C190CF1FF3304D2A0426D
:1071E00002D9ACF102032C44241A43EA07401EB131
:1071F000D440002334607360BDE8F0874746DDE784
:107200006346F1E792BB431B01214FEA154EAFB233
:10721000B3FBFEFC200C0EFB1C330CFB07F840EA12
:107220000343984562D9EB180CF1FF3004D298451E
:1072300002D9ACF102002B44A3EB0803A4B2B3FBC8
:10724000FEFC0EFB1C330CFB07F744EA0344A74289
:107250004ED92C190CF1FF3304D2A74202D9ACF15C
:1072600002032C44E41B43EA0040C0E7C2F12003C0
:1072700020FA03F1954090402EFA03F303434FEABE
:10728000154EAFB2B1FBFEFC0EFB1C10190C0CFB33
:1072900007F841EA0041884504FA02F422D9691846
:1072A0000CF1FF3004D2884502D9ACF10200294428
:1072B000A1EB08019BB2B1FBFEFC0EFB1C110CFB09
:1072C00007F743EA01439F420ED9EB180CF1FF3157
:1072D00004D29F4202D9ACF102012B44DB1B41EAEC
:1072E000004192E76046E3E76146F7E76046A3E7BF
:1072F0006346B7E7834206D916B9002108467BE703
:10730000C6E900E0F9E7B3FA83F78FB9834201D306
:10731000724508D8BEEB020460EB030301209C46D3
:107320001EB9002168E73846FAE7C6E9004CF8E7DD
:10733000C7F1200CBB4022FA0CF41C432EFA0CF1CE
:1073400020FA0CF3B84001434FEA14490EFA07F54E
:10735000B3FBF9F81FFA84FE09FB18300B0C08FB8D
:107360000EFA43EA00439A4502FA07F240D9E318BD
:1073700008F1FF3004D29A4502D9A8F10200234453
:10738000A3EB0A0389B2B3FBF9F809FB183308FB36
:107390000EFE41EA03418E452CD9611808F1FF33F6
:1073A00004D28E4502D9A8F10203214443EA0040E9
:1073B000A0FB0298A1EB0E014145CE46434602D305
:1073C00006D14D4504D2B9EB020E68EB0403013837
:1073D000002EA6D0B5EB0E0261EB030101FA0CFC06
:1073E00022FA07F34CEA0303F940C6E9003198E7B3
:1073F0004046C5E74346D9E770B5234C9DF810E0F9
:1074000094F83AC01CF0020F34D1460816F0040577
:1074100030D139B363F3830C4001237D21854FEADA
:10742000CE0E0EF0180E00F0200040EA0E0023F001
:107430003803184394F820302075144884F83AC073
:1074400066F3020384F820309121A2FB000301FBC4
:1074500002310BA3D3E90023FFF752FEE062206361
:10746000284670BD94F8203065F3020384F820307C
:10747000284670BD0C25284670BD00BFAFF30080C4
:107480008D49FD1A07000000300A0020002AE78419
:107490002DE9F04390F83A30027D3F4D6FF3000341
:1074A000044600F12101C3F3800060F386128DB021
:1074B00084F83A30227505F037FA227D238D37485B
:1074C000246102F079024FF0000922759121A3FB9B
:1074D0000002C4E9029984F8009001FB03212CA367
:1074E000D3E90023FFF70CFE226B02F10E03984252
:1074F0008EBF19464A460146294BE2626160651B10
:10750000A3FB0535064605F0D3F94F460DF12C08CF
:10751000CDF8208006940397238D00F10E091F48B3
:107520009121A3FB000201FB0321636804931D4B1F
:1075300007931D4B059302230B9315A3D3E9002357
:10754000FFF7DEFD104619464FF47A720023FFF76D
:10755000D7FDC5F347150235EDB2CDE90160032132
:107560004B462A460097384605F0AEF8414605F0EE
:1075700017FD40B994F83A3043F0020384F83A30EA
:107580000DB0BDE8F0830C200DB0BDE8F08300BF66
:107590008D49FD1A07000000300A0020002AE78408
:1075A0008988888881C9020091EB020000000000F0
:1075B0002DE9F04F0B79062B93B00C4606463AD0D6
:1075C000092B34D18F68904B3D689D4240F0D580A7
:1075D000D5F81C90B9F1000F00F010828A492C22D6
:1075E000084604F009F80330C3B20B93D9F8000041
:1075F00007F026FD7A7902F00702012A804600F0A2
:10760000D480022A13D1072394F819E023710021B2
:10761000734661F304136376637F2660E160002B99
:1076200000F08880CEF3800E04F11E0A21E000DE17
:1076300013B0BDE8F08FD1F80890D9F80830002BCE
:1076400040F0C580D9F80080404607F0DFFC637E3B
:107650002660002767F304136376637FE760002BDF
:107660005ED00230C2B20B9204F11E0A3D46BE4605
:107670000122A17F880650D094F81FC01CF0010F92
:1076800014BF04F1260004F120001CF0020F18BF03
:1076900006301CF0040F18BF01301CF0080F18BF93
:1076A00002301CF0100B1CBF834603301CF0200F6F
:1076B00018BF12301CF0400F18BF0130C1F3050194
:1076C000A0EB0A000131C9B2C0B2814238BF014605
:1076D00099423ABF591A5FFA81FA4FF0000ABBF19A
:1076E000000F58D09BF802C09BF801004FEA0C2114
:1076F00001F4F85101434ED0BEF1000F75D0002DBA
:1077000000F086812B8D53449BB22B8563836B6A7B
:10771000002B67D0DC606C628AE7013BDBB24DB9BD
:1077200063832146304605F021FC13B0BDE8F04FDD
:1077300005F022BC2A8D13449BB22B856383B8F1DC
:10774000000F3ED098F83A306A6ADB073BD4D46029
:10775000EB696C62002B3ED0EB69002B39D02B78A3
:1077600003F0FF021BB3012A27D1AB683BBB274BB9
:10777000C5E9023513B0BDE8F08FCB68002B00F0EF
:1077800045811D68EA69974240F03A81B9461F4633
:10779000FF230B932AE705B32B8D53449BB22B8514
:1077A0006383BEF1000FCAD0B1E706232CE7284659
:1077B00013B0BDE8F04F07F08DBC00DED5E700DE6A
:1077C000D5E700DEBEE76B6AA342A3D130E700DE57
:1077D00038E700DEC3E700DEBEE7A4F81AA0BEF17A
:1077E000000F9ED000DE6B6A94E7BCF13F0F4FEABA
:1077F0005C100DD9002D00F00E812B8D53449BB2EF
:107800002B8563839BE700BF901D002025F10200BC
:107810009BF800C00CF03F0EBEF1240FEAD802F036
:10782000030E73441CF0800F03F1090314BF4FF4DF
:10783000967E4FF01E0EDB00C2F3400223FA02F2E6
:107840000EFB01F3CDF840E002F596719E448E45A3
:10785000C0F0D0801CF0400F14BF32214FF4FA71F9
:10786000DFF834C203FB01F1ACFB01C1890C0C91C0
:107870000121CDE90D3201FA00F3D8B20F9308F0DF
:1078800087F861690E9A0D9B11902F398A1A13445B
:107890000C9A1B1A81489B1AA3FB00017CA3D3E915
:1078A0000023FFF72DFC20F07F430D93637E9A06A3
:1078B00040F19580002D00F0BF802B8D53449BB28A
:1078C0001E2B2B8503D9637E99067FF538AF6B6A33
:1078D000002B00F0C780DC602B8D6C6263839BF80B
:1078E00000100F9BBA8801F03F0141EA032122F406
:1078F000E76240F23F7322F007020B401343BB8064
:10790000637E9A0600F18A80B8F1000F00F0AC8027
:1079100098F83A3013F001037FF455AFD9F80820F6
:107920005E48BA4208BFC9F808307A79119B03F55E
:10793000EA7102F003030933C2F34002DB00D340D3
:10794000574A0B440721E3FB0021104650A3D3E91B
:107950000023FFF7D5FB0C9B109A2F3302EB430358
:1079600020F07F4068600022BB600221012003F00C
:10797000A9FE0B9AFF2A0CD023690D9900203B3BEE
:107980000B44CDE90000012104F00CFF10F0FD0FC5
:1079900078D144492C22284603F02EFE424923691F
:1079A000CDE907154149CDE9051569680246002072
:1079B000CDE9030103320D990091CDE901003B3B74
:1079C000D2B2012104F080FE10F0FD0F5CD1012243
:1079D0000221104613B0BDE8F04F03F073BE04F06F
:1079E00067FF23690D9A243B991804F063FF030293
:1079F0003FF560AF002D7FF4A2AE92E600DEEDE52C
:107A000000DEB9461F46FF230B93EFE500DEB8E624
:107A1000A4F81AA0E6E6A4F81AA082E6D9F808307D
:107A200023BBC9F80870637E43F0100363763B798B
:107A30006FF386133B71FBE51D4803F0B3FD05466C
:107A4000C0B10023027D0370C0E9023363F3C712A3
:107A5000A0F828A00061027503624362C0F81C9080
:107A600000F110072C6237E700DE51E7BB42D8D0A7
:107A700000DED6E7637E98067FF553AE43F0100331
:107A800063764EE600DE84E700DEA0E7AFF3008019
:107A90008D49FD1A0700000083DE1B4300CA9A3B94
:107AA0008C49FD1A901D002035F102008DF0020076
:107AB0008C1D0020000000002DE9F041C4682379EE
:107AC0006FF300038CB023710F46054609F0FAF9F5
:107AD000002009F01BFA207C012100F0070009F0CA
:107AE00007FA227C92000820252102F01C0209F0EE
:107AF00041FA237C23F018030120237405F0DEFAF9
:107B0000002864D01C3009F05FFA494B0B930BA896
:107B100009F01CFA474940F25B6009F0C5FA207988
:107B2000C0F34100253007F0FFFE4348214609F02D
:107B30009DF923799B062DD5962009F0DFFB0023C4
:107B40001A461946184609F011FBD4F800802E6831
:107B5000404607F0D5FE06446A6806F10E01002093
:107B600009F0D8FB09F0CEFC09F070FB204607F0C5
:107B700059FA811CC9B24046324607F0C3FE054699
:107B800048BB57B1204607F089FE10BB00200CB05F
:107B9000BDE8F08109F04AFBD7E7E369002BF1D09B
:107BA000264D0795264D059540F2F3150093CDE936
:107BB0000377CDE9017706943346012239460895CB
:107BC00004F082FD10F0FD0FDCD000DEDAE700DE0D
:107BD00098E700DEDAE71B4A1B491C4840F2E51330
:107BE0000EF0DDFE1A4B0721A5FB030301FB053157
:107BF0000DA3D3E90023FFF783FA1649024616487E
:107C00000EF0CDFE002585F31188BFF36F8F03239F
:107C1000184602DF1148214609F028F909F0F0F969
:107C20006FF08B00B3E700BF00CA9A3B0000000072
:107C3000D6BE898E555555004D01030035FC020016
:107C4000ADFC020060A80300ACA8030028A8030054
:107C50008D49FD1ADCA80300B0A8030031FD020025
:107C60002DE9F041C46882B00DF1030105462046BC
:107C700007F0DEFA2379584A6FF386132371002642
:107C8000168009F01FF9304609F040F960790121AA
:107C900000F0070009F02CF9627992000820FF211A
:107CA00002F01C0209F066F9012005F007FA00282D
:107CB00061D01C3009F088F9484B019301A809F004
:107CC00045F9474940F25B6009F0EEF9207900F090
:107CD0003F0007F029FE2146424809F0C7F89620E8
:107CE00009F00CFB627902F0070201231046002123
:107CF00009F03CFA27682E68384607F001FE064472
:107D00006A6806F10E01002009F004FB054660795F
:107D1000D4F8088000F00700012109F063F9054458
:107D2000607900F007000228454422D004280CBFE7
:107D30004FF4BC73282301211D4409F055F9284450
:107D400009F0C4FB09F0DEFB09F080FA204607F0D9
:107D500065FAC11C3246C9B2384607F0D3FD054664
:107D600068B9204607F09AFD38B9002002B0BDE896
:107D7000F0811823DFE700DE9BE700DEF5E71A4A13
:107D80001A491B4840F251230EF009FE194B0721F6
:107D9000A5FB030301FB05310DA3D3E90023FFF786
:107DA000AFF91549024615480EF0F9FD002585F397
:107DB0001188BFF36F8F0323184602DF1048214656
:107DC00009F054F809F01CF96FF08B00CEE700BF02
:107DD00000CA9A3B0000000072240020D6BE898EA3
:107DE000555555009D0C0300F0A80300ACA80300F6
:107DF00028A803008D49FD1A88A90300B0A8030034
:107E0000F103030008B509480EF0BCFD002002F0A4
:107E100043FD014620B106480EF0B4FD002008BD28
:107E200000F004F903490448F6E700BF2AAB030059
:107E300042AB030076AB030062AB030010B588B021
:107E40000C461E220021684612F045F909496A468F
:107E5000204610F050FAA388062B09D923685A79D6
:107E6000402A05D19B79112B02D103480EF08AFDDF
:107E700008B010BD997F02007BAB030030B50378DA
:107E800093B0044607AD032B20D8DFE803F00219B6
:107E90001B1D11492846FFF757F905956378049390
:107EA000A3780393E3780293237901936379009392
:107EB000A3790A4A1E210AA80EF0D4F813B030BDE7
:107EC0000749E7E70749E5E70749E3E7074A0A21E2
:107ED00028460EF0C7F8E0E78EAB0300B7AB03000F
:107EE00095AB03009CAB0300A6AB0300B0AB030053
:107EF00038B50D460146074814460EF054FB294696
:107F000005480EF050FB21460448BDE838400EF00D
:107F10004ABB00BF98A6030090A6030088A60300F2
:107F200010B50446184811F0F4FBA0B1164811F042
:107F3000F0FB80B1144811F0ECFB60B113480EF077
:107F400018FB002807DB12480EF013FB002802DBA9
:107F500010480EF00EFB032C15D8DFE804F00206E3
:107F60000D1000221146104602E0002211460120A9
:107F7000BDE81040FFF7BCBF00220121F3E700215C
:107F800001220846F4E710BDC8A2030098A603002A
:107F900090A6030088A603002DE9F74F44680E461B
:107FA00021784029054624D16278112A21D194F8FC
:107FB000028094F8039094F804A0A77994F805B08F
:107FC0001648E4790EF0DEFC53464A461448CDF8D4
:107FD00000B041460EF0D6FC124839460EF0D2FCF5
:107FE000114821460EF0CEFC012F02D12046FFF7AA
:107FF00097FF2B78083B012B0DD86C7869681D2CF6
:1080000028BF1D242246304612F057F80020305574
:1080100003B0BDE8F08F0120FAE700BFDAAB030040
:10802000F2AB03000FAC03001DAC03001FB50E4AFA
:108030000E483023CDE901230023039303F076FAA1
:108040000B480EF09FFC0B4901A803F01FFA0446F1
:1080500030B1014608480EF095FC204604B010BD32
:1080600006480EF08FFCF8E701013000D001002037
:108070002AAC03007D7E020045AC030065AC030022
:10808000014B1B68184700BFDC010020014B186042
:10809000704700BFDC01002030B585B004460D46B6
:1080A00010220021684612F016F802238DF80230E3
:1080B0002A46044B0193214668460DF0FDFF05B0AA
:1080C00030BD00BF8180020080B505460E461746D0
:1080D00098460DF0BFFC034612F080F8DFF81890C8
:1080E000044649F80030424630463946A84754F81D
:1080F000090000F00BFC00BF080000002DE9F0476C
:10810000058B04462807904611D4022905F007057F
:1081100040F0CC8020460EF06AFC78B10138218B0B
:10812000042811D8DFE800F0C2106D859500012900
:108130000CBF45F0100545F02005258388F3118814
:10814000BFF36F8FBDE8F08701F0070AAA4500F082
:10815000A5800027B9463E46A368002B00F0BC80EE
:1081600041F00801218388F31188BFF36F8FA16864
:10817000002900F0BA800D68002900F0B680D1F81F
:108180000480334652462046C047002D76D02B68E7
:1081900029461D46F0E701F007035A1F012A1BD8A4
:1081A000002221F00701062B276889B2C4E90022CA
:1081B00009D13B4603E0628B013262831B68002BCE
:1081C000F9D141F00201218320460EF010FC002875
:1081D0007AD041F0200176E0042B0AD121F007018A
:1081E00089B2218320460EF002FC10B141F020013B
:1081F0002183218B01F0070AAA454FD00027B946F9
:10820000AAE7236921F0070141F00601062DD3F802
:10821000009021832DD1B9F1000F3FD041F008012A
:10822000218388F31188BFF36F8F3A492046C847EE
:1082300029E021F00701236941F0040189B2042DEE
:10824000D3F804902183E6D000273E464FF0040A7D
:1082500082E721F00701236941F0050189B2052D6C
:10826000D3F808902183D6D000273E464FF0050A68
:1082700072E700273E464FF0060A6DE72B4687E778
:10828000B9F1000FD1D1EFF31188202383F31288C5
:10829000BFF36F8F238B23F008032383258BEA061C
:1082A0002ED525F01003238305F007056669218B81
:1082B000002EBFF670AF00232768C4E9003321F019
:1082C000070141F001012183218B01F0070AAA4532
:1082D0004FF000097FF440AF002F9CD041F008011F
:1082E000218388F31188BFF36F8F002FC8D03D68BA
:1082F00039463346524620460EF0A5FB2F46F4E79A
:10830000AB067FF51BAF25F02003238305F007059F
:1083100000E700BF736A0300014B03600020704751
:10832000A0A6030007B51B491B480EF015FF70BB44
:108330001A4919480EF010FF48BB194916480EF0AB
:108340000BFF20BB174914480EF006FFF8B9014691
:10835000154A11480FF0C9F9C8B9024613490E4829
:1083600001230FF09DFA90B90123009301460223E7
:108370000948EF220EF010FE48B907480EF035FE0E
:1083800028B9054803B05DF804EB0EF05EBE03B0FB
:108390005DF804FB54020020400700203C0200204E
:1083A000240200200C020020E00100207AAC03002F
:1083B00008B50348034A0021121A0EF0CFFC08BD8D
:1083C000D00700209C2500200748084A084908B526
:1083D000121A0EF0C5FC0748074A0849BDE80840D4
:1083E000121A0EF0BDBC00BF00000020CC07002018
:1083F000ACB303000000002000000020ACB3030079
:1084000038B505460C4699B1D1E901230F480968F2
:108410000EF0B8FAD4E90423E1680D480EF0B2FA80
:10842000E1690C480EF0AEFAA1690B480EF0AAFA09
:10843000012D05D1EFF30581084810390EF0A2FA9D
:1084400021462846BDE838400CF032BACAAC0300D9
:10845000FAAC03002AAD03003AAD030069AD030096
:1084600030BFFFF7FDBF00BF2DE9F0410B4EDFF835
:10847000308006EB0807CC1B0546324609492046EA
:1084800011F01BFEA01942460021083C11F023FE0A
:10849000C5F8844007F10800BDE8F0810000000045
:1084A0000800000060A60300054B5A699B689A42C9
:1084B0001FBF044A536843F080535360704700BFA6
:1084C0003C24002000ED00E02DE9F843324D8046C9
:1084D0003248894617460EF055FAAB6ADE0622D5B9
:1084E0002F480EF04FFA1124AB6A1D0703D52D4813
:1084F0000EF048FA1224284DAB6A980715D52A4881
:108500000EF040FA6E6BAB6A190642D52748314629
:108510000EF038FAB9F1000F03D0AB6A23F08003F4
:10852000AB62132403E01024DEE76FF015061A4D4A
:10853000AB6ADA0703D51E480EF024FA1424AB6A9E
:108540009B0603D51B480EF01DFA1524124B9A6AA0
:10855000D50602D49A6A90070AD55B68190507D533
:108560004146304600F0BAFA10B180F3098802247F
:10857000094B9A6A920642BF5A6A22F400525A6222
:108580009A6A42F0FF029A6200233B702046BDE8DF
:10859000F8836FF01506C4E700ED00E07DAD030041
:1085A00094AD0300C8AD0300DCAD0300F5AD0300DE
:1085B0000CAE03002CAE030010B51D4C1D480EF090
:1085C000E1F9A36A990130D51B480EF0DBF91E20B2
:1085D000A36ADA0103D519480EF0D4F91F20144C10
:1085E000A36A1B0303D516480EF0CCF92120A36A19
:1085F000590303D513480EF0C5F922200C4CA36A89
:108600009A0303D510480EF0BDF92320A36ADB03BB
:1086100003D50E480EF0B6F92420054A936A6FEA96
:1086200003436FEA1343936210BD1D20D0E700BFE0
:1086300000ED00E05CAE030075AE030089AE030000
:10864000A4AE0300C3AE0300E9AE030004AF030011
:1086500070B5244C064624480D460EF093F9A36AE3
:10866000D90435D521480EF08DF91720A36A1A05D3
:1086700003D51F480EF086F918201A4CA36A9B05F3
:108680000FD51C480EF07EF9A16BA36A180407D51C
:1086900019480EF077F91EB1A36A23F40043A362D0
:1086A0001920104CA36A590503D514480EF06AF935
:1086B0001A20A36ADA050DD511480EF063F91B20C4
:1086C000084A936A43F47F43936200232B7070BD82
:1086D0001620CBE7A36A9B04F2D50A480EF052F9A4
:1086E0001C20EDE700ED00E030AF030047AF0300D2
:1086F000C8AD030059AF030073AF030089AF030097
:10870000A5AF03002CAE03002DE9F0415B4B5F6881
:108710008AB00446C7F30806002585F31188BFF325
:108720006F8F02F07F43B3F17F4F06D102F00C034D
:10873000082B13D152480EF025F900252C464FF096
:108740000008F31E8DF80780092B00F28680DFE811
:1087500003F00A7A7E7684848484848210074CBF76
:108760000C460125EBE74748444E0EF00BF98DF817
:108770000780F36A9A0704D543480EF003F90023F3
:1087800030E0F36A002B01DA4048F6E7F36A5B0059
:10879000F5D53F480EF0F6F87369A26943F480738B
:1087A0007361BFF34F8FBFF36F8F736932F8022C81
:1087B00023F480737361BFF34F8FBFF36F8F4DF658
:1087C00002739A4209D0B36ADBB253B30DF10702C8
:1087D00001212046FFF778FE33E021682D480EF096
:1087E000D1F823689DF80720C2B902AE04F1200732
:1087F00020686168324603C20834BC421646F7D18D
:10880000099AB5B3C2F3080121B96FEA52226FEA9F
:108810004222099202A91846FFF7F2FD0AB0BDE80C
:10882000F081B36A13F47F4F05D00DF107010120E9
:10883000FFF70EFF05E0B36AB3F5803F9FD3FFF764
:10884000BBFE0346CEE70DF107020021C1E70DF1A3
:1088500007010020ECE710488FE7104B1049114842
:1088600017F4F87FA6F1100218BF19460EF08AF827
:1088700085E722F4FF7222F00102CAE700ED00E072
:10888000ECAF030018B0030030B0030052B0030097
:1088900061B0030081B003009EB00300D3AF0300BA
:1088A000BEAF0300C3B00300044B5A6942F010028C
:1088B0005A615A6922F008025A61704700ED00E0DF
:1088C000EFF30880EFF3098101B57246FFF71CFF53
:1088D00001BD00BF0B4880F308880BF023F920206E
:1088E00080F3118808484FF40461401880F3098828
:1088F000EFF314800221084380F31488BFF36F8FD5
:1089000000F0B4F8C044002000370020084B9B68FA
:1089100083420BD1EFF3058343B1064B5A6842F013
:1089200080525A605A6A22F400425A620DF098B896
:108930003C24002000ED00E015498A684FF030002B
:108940001044EFF3098C80E8F01F202080F3128898
:10895000BFF36F8F0F4F4FF000664A698A603E6029
:10896000D2F884000C4C2060D2F888000023C2F8B2
:10897000883080F3118804B5104600F015F9BDE881
:10898000044002F1300090E8F01F8CF30988704732
:108990003C24002004ED00E0A00D00201EF0040F98
:1089A0000CBFEFF30880EFF30980816911F8021C16
:1089B0000229FFD001B572460EF0D4F901BD00BF07
:1089C00040B2002807DB044A4109012300F01F00E0
:1089D000834042F82130704700E100E040B20028B7
:1089E0000CDB4309064900F01F00203301228240BE
:1089F00041F82320BFF34F8FBFF36F8F704700BF45
:108A000000E100E0054B420900F01F0053F822206E
:108A1000012303FA00F01040704700BF00E100E0BE
:108A200040B20028A8BF00F1604001F10101B8BFC9
:108A3000064B4FEA4111ACBF00F5614000F00F005A
:108A4000C9B2B4BF195480F80013704714ED00E0A8
:108A5000044B054A23F07F039360BFF34F8FBFF3AE
:108A60006F8F70470070020000ED00E008B5FFF75F
:108A7000EFFF0B4AD2F8883023F47003C2F8883035
:108A8000EFF3148323F0040383F31488BFF36F8F91
:108A9000FFF78EFCFFF798FC00F05CF80BF0D0FFBE
:108AA00000ED00E042F8203C009B42F81C3C0A49E3
:108AB000019B42F8183C029B42F8143C21F0010152
:108AC0004FF0807342F8043C42F8081C0023203A1F
:108AD0000265C0F888307047C9800200094A034621
:108AE000906870B113F1160F406F05D0A0F14002ED
:108AF0009A4205D8834203D2814228BF00207047A2
:108B0000002070473C24002008B515460C4A0D4B48
:108B10009060D0F884201A600E4600F045F82C468C
:108B200086F309880020044B984720460021002244
:108B30000023024C20470000896D0300C980020019
:108B40003C240020A00D0020014B10221A61704728
:108B500000ED00E0044800232021C2180133302B2F
:108B600082F80013F9D1704700E100E008B5EFF397
:108B70000583064A103B02EBC30152F833004968F3
:108B80008847BDE80840FFF78FBC00BFC8A30300BB
:108B9000024B034A0348012100F076B8000004208C
:108BA00000000020A0A60300426F054B403A1A6067
:108BB000044A4021C3E901121846012100F06EB8B1
:108BC000A40D002000000B15084AC2F898000B689D
:108BD00023F01F03034343F01003C2F89C308B685B
:108BE00043F00103C2F8A030704700BF00ED00E081
:108BF0002DE9F043DFF8608085B00E461F4604463D
:108C00004FF00009B14523DA6068D8B13FB1411E89
:108C100008421BD11F2819D92368194216D123688D
:108C200001930EF0D4F8A36803430393D8F890504F
:108C3000C5F30725D0B2013DA84207D801A9FFF727
:108C4000C3FF421C09F101090C34DBE76FF0150288
:108C5000104605B0BDE8F08300ED00E0044B0522AE
:108C6000C3F89420BFF34F8FBFF36F8F704700BFDF
:108C700000ED00E0BFF35F8F024B0022C3F89420A9
:108C8000704700BF00ED00E010B5034C01232278CF
:108C9000FFF7AEFF207010BD7424002008B50B4A0A
:108CA00000231278FFF7A4FF10F1160F07D0084A2F
:108CB0000021D2F89030C3F30723984200DB08BDAF
:108CC000C2F89800C2F8A0100130F2E77424002026
:108CD00000ED00E02DE9F043534B544CD3F89030B5
:108CE0002568C3F307239D4285B000F29A80FFF701
:108CF000C1FF00200C2685421AD14D4C4D4F2570E6
:108D00006846FFF709FBDFF82081DFF82C91064663
:108D10000025AE4213D1237843490020D1F890209A
:108D2000C2F30722934276DBFFF798FF002042E070
:108D3000616806FB0011FFF747FF0130DBE7009891
:108D400000EB05114FEA051CCB683B40B3F5000F63
:108D500048D00AD8B3F5001F30D0B3F5800F36D015
:108D6000B3F5801F10D00135D3E7B3F1807F42D037
:108D7000B3F1007FF7D150F80C3088684A680EF0E4
:108D800026F840F4802009E050F80C3088684A68E2
:108D90000EF01DF840F0885040F43020CDE901235A
:108DA0000390D8F890302078C3F30723013B984212
:108DB0002AD96FF0150005B0BDE8F08350F80C30EB
:108DC00088684A680EF003F840EA0900E6E750F8C0
:108DD0000C3088684A680DF0FAFF40F0C06040F43B
:108DE0000030DBE750F80C3088684A680DF0EFFF80
:108DF00040F08270D2E750F80C3088684A680DF075
:108E0000E6FF40F08870C9E701A9FFF7DDFE23788F
:108E100001332370A7E7C1F89830C1F8A0000133EF
:108E20007CE74FF0FF30C6E700ED00E0ACA60300A2
:108E3000742400200000F0FF0000081108B5024B68
:108E40001B689847002008BDB00D0020034B044A62
:108E50001860937843F0020393707047B00D0020C0
:108E60006C02002008B50649064821F00701C1F14F
:108E7000005202F580220DF046FD002008BD00BF23
:108E8000E3660020B40D002070B54169867A0B4D71
:108E9000044659B1437ADB0706D42C2303FB06535F
:108EA0005B6A1B689B689847002363612C202146FE
:108EB00006FB0050BDE8704010F0FBBD64060020CA
:108EC000024B2C2202FB0030704700BF64060020DA
:108ED000827A064B2C2101FB02339A6A1B7F1B33DB
:108EE000801A23F00303B0FBF3F070476406002000
:108EF00038B5074B827A2C2404FB02335B6AD3E932
:108F000001240C601568FFF7E3FF04FB005038BD37
:108F1000640600202DE9F04385B0054668460391BC
:108F200090461C4610F0AFFFDDE90067EFF31189B2
:108F3000202383F31288BFF36F8F6B8B002B41D0FC
:108F40002A8B9A4225D90022002328460BF0DAFF0B
:108F50000446F0B189F31188BFF36F8F039B002B98
:108F600041D032463B46684610F0B2FFA27A264B0B
:108F70002C2101FB023320465B6A1B6803A91D6894
:108F8000DDE90023A847606170BB2046FFF77CFF46
:108F900024E0698B4B1E6B8389F31188BFF36F8FBD
:108FA0002B7F2A8BAC6A1B3323F00303521A02FB7C
:108FB0000344154B154AEB1A9B105343A3722B7FA6
:108FC000E372CBE789F31188BFF36F8F23464246E4
:108FD00028460BF097FF04460028BFD10024204606
:108FE00005B0BDE8F0836361012300252381039B65
:108FF0006382E27A6560294604F1180011F06BF88B
:1090000063692582E360EAE764060020A38B2EBA39
:1090100070B50D4C2C2500B970BD037A4668002B45
:10902000FAD0013BDBB20372002BF5D1C360436081
:10903000837A05FB03431B6A13B198473046EAE77E
:10904000FFF722FFFAE700BF640600200E4A012363
:10905000C2F840354FF080424FF08051C2F8783569
:10906000D1F83001082808D1D1F83411052904D8E5
:109070000648415C09B1C2F838364FF080430122FE
:10908000C3F880250020704700E00140E6B00300EF
:1090900020B1034B800143F001031847704700BF24
:1090A00080A603002DE9F04190F8203003F01F0363
:1090B000012B04460F4600F120061BD0022B05D0E1
:1090C00043BB90F821100EF0D4FB03E0818CC9B2B1
:1090D0000EF0ACFB0546E8B130460EF0C5F802468E
:1090E00068688368A2B99B684BB13A463146BDE8CF
:1090F000F0411847818CC9B20EF07FFBEAE76FF0B0
:10910000850311F06BF80F4A13500020BDE8F08181
:10911000DB68E9E794F8211020460DF0C4FF024611
:109120000028ECD030460EF09FF840B91369002BB0
:10913000E5D03A463146204698470346E1E7D368F2
:10914000F5E700BF0C0000002DE9F04F0B7E33F077
:10915000800893B00446174600F1200940F071845E
:109160004A7E02F0010097B117F10C0F0FD088B9B9
:1091700017F1710F03D10846FFF74AFF03E00846D5
:10918000FFF746FFB846404613B0BDE8F08F002811
:1091900000F04084002B40F00E840B8A072B0DD882
:1091A0000846FFF735FF48460EF05EF80346A06913
:1091B000002B00F03684802100F03CBCCA681368A4
:1091C00023625368C9F804304A68E58C002AE7D066
:1091D00048460EF049F808BB537E15B113F0020F54
:1091E00001E013F0040FDBD000200DF05AFE05461D
:1091F0000028D8D010F0F2FF94F82020B84E0023B9
:1092000012F0600F8351C2F341130BD0032B40F0D7
:10921000B38110F0E3FF6FF0850340E0002DBFD075
:10922000537EDBE748460EF01FF894F82130002803
:1092300040F03981013B0A2BEBD801A151F823F012
:109240008D930200139202000F9402001392020009
:109250006D92020013920200139202001392020018
:10926000DF9202001392020041930200A069618C18
:1092700003697F29D3F88030CBD8A28C002AC8D1CB
:10928000E28C002AC5D194F82020D206C1D194F8EE
:109290002C20022A05D110F0A1FF4FF0FF333350EC
:1092A00013E01B0706D5C9B20EF017F8804620B1AF
:1092B000284661E7012384F8353094F82C30012BDF
:1092C0000BD1638C4BB984F82C3010F087FF3358E6
:1092D000002B00F05683284663E70123F3E720467E
:1092E0000DF055FE628CFF2A014692D8E38C002BCC
:1092F0008FD194F82030D8068BD194F82C30002BE5
:10930000C9D02AB1D2B220460EF09CF90028C2D0B2
:10931000618C94F834308B42D7D0C9B220460EF01D
:1093200098F980460028C3D1628C002A14BF02231A
:10933000012384F82C30052120460EF0A8FCC4E758
:1093400094F8203003F01F03012B7FF462AFE38C0D
:10935000002B7FF45EAF628CFF2A3FF65AAFA18CE0
:10936000FF293FF656AF94F82C30022B93D1D2B29E
:10937000C9B220460EF07FFB10F1020F804640F08C
:10938000008110F02BFF46F800809EE7E38CA18C53
:10939000002B7FF43EAF94F82C30002B3FF47BAFD2
:1093A000012B0FD100297FF476AF12F01F020CD1F0
:1093B000638C012B89D194F868306FF3C30384F870
:1093C000683082E712F01F0217D0022A7FF47DAFC7
:1093D000B4F822A0BAF1000F7FF477AF5FFA81F8FA
:1093E000414620460EF039FC034610F0F7FE33509C
:1093F000013306D14FF0FF385AE700297FF44BAF15
:10940000D6E75246414620460DF034FF5DE7E38C37
:10941000A18C002B7FF4FDAE638C022B5FFA81F8E8
:1094200013D194F8203003F01F0358EA03037FF4AC
:10943000F0AEA0690122090A0DF02CFF00287FF48C
:10944000E8AE012384F835303FE794F82C0000287B
:109450003FF421AF01280DD100297FF41CAF12F099
:109460001F020AD1012B7FF430AF94F8683043F02B
:109470000803A4E712F01F0211D0022A7FF425AFDF
:10948000002B7FF422AF414620460EF0D1FB03466D
:1094900010F0A4FE33500133ACD00122B2E7002912
:1094A0007FF4F9AEDEE70A2B3FF6B3AE01A151F827
:1094B00023F000BFE5940200139202001392020011
:1094C00013920200139202001392020065950200AB
:1094D000139202001B9902001392020049990200A4
:1094E0000C000000E38CA18C022B7FF492AE94F868
:1094F0002C30002B3FF4CFAE012B10D100297FF48C
:10950000CAAE12F01F020DD194F868304FEA9308EA
:1095100008F00208C3F3001348EA030806E012F05B
:109520001F0210D0022A12D04FF0000805F10C0AD9
:1095300050460DF01BFDE38C98420ED210F04EFE0B
:109540006FF00B03ABE600297FF4A5AEDCE7C9B2F0
:1095500020460EF091FB8046E8E7414650460DF06C
:10956000C7FCB2E694F82020B4F822A0D2064FEA55
:109570001A235FFA8AFA09D029462046FFF792FD9E
:109580008046B8F1000F7FF493AE9EE6013B0E2BB0
:109590003FF63FAE01A252F823F000BFD99502007A
:1095A00023960200DB96020013920200139202003F
:1095B000D3960200D3960200139202001392020087
:1095C00013920200139202001392020013920200FF
:1095D000139202002398020005F10C0A5046B4F8D9
:1095E00026800DF0C3FC80450AD2B4F826802046C0
:1095F0000DF0CDFC48B101287FF40BAE216F05E0E2
:1096000050460DF0B3FC8046F1E7E16E002900F012
:1096100013810A78424528BF424650460DF057FC58
:1096200053E620460DF0B3FC0AF101020190014619
:10963000D2B220460DF0E0FF824600283FF4E9ADAB
:1096400005F10C08D0F804B040460DF08FFC9BF8F3
:109650000020904203D240460DF088FC0246594655
:1096600040460DF034FCDAF80CA0BAF1000F09D135
:10967000298AE38C99427FF628AEC91A40460DF03C
:1096800041FC22E6DAF8040083681B6B13B9DAF8B0
:1096900000A0EAE7019998470028F8D0A0F1040B50
:1096A0005BF8043F002BF2D01B78002BEFD0404634
:1096B0000DF05CFCDBF800301A78904203D2404693
:1096C0000DF054FC82B2DBF8001040460DF0FFFBB9
:1096D000E6E720460DF05BFC9BE552460321204661
:1096E0000DF020FD824600283FF493AD0DF0B7FD4C
:1096F000B4F826B0E0B9BAF81430ADF82830DAF88A
:10970000103005F10C081B88ADF82A3040460DF0EA
:109710002DFC834508D2E08C9DF82820824228BF8A
:1097200002460AA9404679E740460DF01FFCF3E7E0
:1097300000238DF814309AF81530DAF808208DF8E7
:109740001530C24B1340C24A934258D1102106A88B
:109750000FF011FC0028FFF65CAD0AAA1028DFF814
:10976000F4E20DF1180C114628BF1020404502F11B
:10977000020233D8800002308DF81400019105F107
:109780000C0A50460DF0F2FB9DF81480D84528BF16
:10979000D846404503D250460DF0E8FB8046B8F16C
:1097A000020FC34628BF4FF0020B5A4605A9504688
:1097B0000DF08DFBA8EB0B08DDF804B04FEA580361
:1097C0000BEB58025A4522D118F0010F3FF47DAD42
:1097D000019AD15C50460DF083FB76E51CF8013B05
:1097E0004FEA131A03F00F031EF80AA01EF8033005
:1097F00002F802AC02F8013C08F10108B6E79AF859
:1098000014308DF81430DAF810300193B7E71BF8F4
:10981000011B5046CDE902320DF06AFBDDE9023250
:10982000D0E720460DF0B3FB20B101287FF4F1AC66
:10983000236F00E0E36E13B96FF0150838E55B881D
:10984000B3F5007F7FF6E5AC834B0A9300238DF8D8
:109850002C30A36C04F1480A9A455BD105F10C0B3E
:1098600058460DF083FBBDF82A80E38C984528BF4D
:109870009846404503D258460DF078FB80469DF847
:109880002820424528BF42460AA958460DF01FFB32
:10989000B8F1050F94BFA8EB0808A8F10508B8F1C6
:1098A000000F3FF412ADA36C53453FF40EAD002BF7
:1098B0003FF40BAD5A7D0F2A14D11A7D196901931B
:1098C000424528BF424658460DF001FB019B1A7DD8
:1098D000424594BFA8EB0208A8EB0808B8F1000FB6
:1098E0003FF4F3ACE26C9A423FF4EFAC1B68DEE766
:1098F0005A7D0F2A0AD11A7DBDF82A100A44ADF804
:109900002A209DF82C2001328DF82C20E26C934205
:10991000A4D01B68002BEBD1A0E794F82C3094F86E
:1099200034A0002B3FF4B7ACE38C012B7FF471AC77
:1099300005F10C0840460DF019FBE38C9842FFF44A
:10994000FDAD5146404646E794F8203003F01F0332
:10995000012B7FF4A0AC20460DF062FE00283FF4FE
:109960009AACA38C4268FF2B3FF653AC12799A4213
:10997000FFF44FAC0F2B3FF64CAC234493F836A0CA
:10998000D2E70123A36248460DF06EFC60B9E38C78
:1099900053B1294600200DF084FA054600283FF413
:1099A00002AC6B7E5E07F4D52946204613B0BDE8B5
:1099B000F04F0EF0DDB850077FF5F5AB802B7FF44C
:1099C000F2AB0846FFF724FBA36A012B7FF4DBAB65
:1099D00094F83530002B3FF4D6AB94F82130052BAA
:1099E00005D1618CA069C9B20DF077FC804694F86E
:1099F0002130032B09D1638C022B06D1A18CA069E5
:109A00000022090A0DF046FC8046002384F8353018
:109A1000FFF7B9BB52077FF5C6AB002B3FF4ABABEA
:109A2000CCE7E38C002B3FF4C6AB17F10C0118BF59
:109A30000121C9010EF02AFF00238046A362FFF72F
:109A4000A2BB6FF00408FFF79EBB00BF00FF02003F
:109A500000030200ECB00300050F050002480022DD
:109A600000230FF03CBF00BF100600202DE9FF418E
:109A7000514F4FF0FF334FF0FF3201A938460BF042
:109A800015F9039B1B69D3F89C409DF80430072B04
:109A9000EFD8DFE803F00A041A0D2C277B8D002293
:109AA000012120460EF0F3F8E3E700221146F8E723
:109AB00094F8683043F0040301A984F86830204624
:109AC0000DF02DFC00220321EBE794F868306FF3D2
:109AD000820301A984F8683020460DF020FC0022A2
:109AE0000221DEE701A920460DF019FCC1E794F838
:109AF0006830A6696FF3820384F868303369D6F85A
:109B00000880BFF35B8FD3F8A030BFF35B8F99075A
:109B1000C3F3400208D4042120460EF0B8F84FF0F9
:109B2000FF352A460721BCE7D8F83C303046984735
:109B3000D8F82430002130469847D8F84030054600
:109B400030469847E5B9294620460DF082FD054686
:109B5000B0B9802120460EF068F8A0690EF04BFFE6
:109B6000831E5842584194F8683084F82C5023F0F2
:109B7000680343EA401384F868302A46042190E7DA
:109B80000022042120460EF082F8CAE702990B7EDB
:109B9000D1F81E2013F07F0F204606D1FFF7D4FA2C
:109BA000054600283FF465AFBBE70DF036FEF7E74A
:109BB000029A062175E700BF1006002030B589B073
:109BC00000220023CDE9062300246FF00703CDE92E
:109BD0000334CDE901441A4B1A4900944FF48062D2
:109BE00019480BF073FC1949174810F003F8184B8B
:109BF00018498B4207D3184B184900208B4210D3C9
:109C0000002009B030BD03F11402BFF35B8F52E8AE
:109C1000000F42E80045002DF9D1BFF35B8F1833E8
:109C2000E7E703F11402BFF35B8F52E8004F42E80D
:109C30000005002DF9D1BFF35B8F1833DEE700BFBD
:109C40006D9A0200C0250020D0070020FDB003005F
:109C5000B4070020CC070020CC070020CC07002050
:109C600038B502460949054680690EF02BFF0446C7
:109C700048B985F8340028460DF0C2FB044610B1FF
:109C8000A8690EF052FF204638BD00BF5D9A020061
:109C900070B5084C084E0546B44202D30024204655
:109CA00070BD636828461968FDF744FA0028F6D0AD
:109CB0001834F1E7B4070020CC07002070B5064641
:109CC000EFF31181202282F31288BFF36F8F1D4CB6
:109CD000236881F31188BFF36F8F5B6893F8683056
:109CE000DB0705D4BDE87040212200230BF098BBB0
:109CF000EFF3118382F31288BFF36F8F256865B984
:109D000083F31188BFF36F8F2368D3B130460022ED
:109D1000BDE8704000230BF04FBB61682A682260E9
:109D20008D4208BF626083F31188BFF36F8F68684C
:109D300005F10801C3699847034829460FF07FFDE4
:109D4000E2E770BDC00D0020E005002030B585B011
:109D50006C4684E80600054600221548002303A946
:109D60000AF006FF0246E8B9039B94E803005D6031
:109D7000083383E80300EFF31180202383F3128874
:109D8000BFF36F8F039B1A600A4A516861B9C2E939
:109D9000003380F31188BFF36F8F07480022002340
:109DA0000BF00AFB05B030BD0B605360F1E700BF5C
:109DB000E0050020C00D00200000002038B54B78E1
:109DC000046945682069202B08D0222B19D010F097
:109DD00005FA114B6FF085021A5010E0CB88072B63
:109DE000F5D1D3681A6842609A8802819B798372A0
:109DF0000DF06EFF2246082128460DF056FF002088
:109E000038BD4B888381C3F3400203F0010302761F
:109E1000437622460921EFE70C00000008B51346FF
:109E2000026910694A78212A13D133B910F0D6F9A2
:109E30000B4B6FF00B021A5009E0CA88072A00F199
:109E4000040128BF072203F10C000DF040F80020A8
:109E500008BD10F0C3F9024B6FF08502EBE700BFBD
:109E60000C00000073B504698DF807102025EFF38E
:109E7000118685F31288BFF36F8F0122E06B0DF11D
:109E800007010CF028FF86F31188BFF36F8F0128BC
:109E900012D00FF0A9FE08B9A37EABB90D4BBFF3EA
:109EA0005B8F012253E8001F002903D143E8002003
:109EB0000028F7D1BFF35B8F2122002304F1480073
:109EC0000BF07AFA02B070BD002121200FF032FFB2
:109ED000CDE700BFC80D002038B505690E49EB6B12
:109EE0000024C3E90144DC606B6B05F14800C3E961
:109EF0000144DC600FF06CFE05F1780007490FF0BB
:109F000035FE074905F124000FF030FE28460DF01C
:109F1000DFFE204638BD00BFA57E03004D80030054
:109F2000D980030008B50EF0CEF90BF09FFC044B6E
:109F30001B680BB10A209847BDE808400BF0AABC8B
:109F4000CC0D002038B5044608480CF05BFF0546F0
:109F500048B1631EDBB21F2B96BF054A0021D15CBE
:109F60000C300CF0BDFF284638BD00BFBC060020F9
:109F700028B103000E38012810B50AD809480CF0A2
:109F800041FF044618B104210C300CF0A9FF204613
:109F900010BD09B10448F2E7BDE810400220FFF708
:109FA000D1BF00BFE80600206406002008B501F01C
:109FB000DDF8BFF35B8F084B1A68BFF35B8F02F0CD
:109FC0000B02BFF35B8F53E8001F43E8002000281B
:109FD000F9D1BFF35B8F08BD6001002010B50121EE
:109FE00004460C300CF0AEFF2146034A0078BDE871
:109FF000104000230EF0B8B970A7030010B501217E
:10A0000004460C300CF09EFF2146034A0078BDE860
:10A01000104003230EF0A8B958A7030010B5012182
:10A0200004460C300CF08EFF2146034A0078BDE850
:10A03000104000230EF098B940A703002DE9F04727
:10A04000884616468246002872D0BFF35B8FDFF841
:10A05000E490002359E8004F49E80032002AF9D182
:10A06000BFF35B8F002C63D02046FEF731FF324DEB
:10A070000C2303FB005027464388534511D0BFF300
:10A080005B8F59E8003F49E80072002AF9D1BFF31D
:10A090005B8F002B4CD01F463846BDE8F047FEF7DB
:10A0A000B7BFA64208D020460CF0A7FE328AF1685E
:10A0B00004F10C000CF00BFF2046FEF709FF0C2604
:10A0C00006FB00504368ABB1B8F1000F12D1204637
:10A0D000FEF7FEFE06FB005001214268D2E90003B4
:10A0E000127A03F01F06B1405B09DAB100EB83007E
:10A0F0000EF027F92046FEF7EBFE0C2606FB00507B
:10A100008368002BC8D02046FEF7E2FE704305F8B6
:10A1100000802046FEF7DCFE06FB0055A8680AF02A
:10A1200023FFB9E7C94300EB83000EF034F9E1E700
:10A13000BDE8F08798010020D00D00202DE9F843FC
:10A140000C460BF093FBE268218A1378042B6DD147
:10A15000022908D82046FEF75BFF00240BF09AFB8B
:10A160002046BDE8F88353783E2B08D10329F1D06F
:10A17000D378012B01D00A2B49D1032705E0052B09
:10A18000FBD00E3B012B42D8012704F10C063046D0
:10A190000CF0E8FE012105463046B4F810900CF0B2
:10A1A000C9FE022130460CF0CDFE03783E2B8046DE
:10A1B00007D1E3681B78012B01D00A2B06D10326B7
:10A1C00014E0052BFBD00E3B012B29D91A4A1B4961
:10A1D0001B4841F2F3030CF0E2FB002383F31188E8
:10A1E000BFF36F8F0323184602DF0226154A98F843
:10A1F0000000032321460EF0B7F8B20712D56369B9
:10A20000A4F8109013FA85F5E560BB07A5D52146A3
:10A210000D480CF0FBFD0D490D480FF0C3FC9CE709
:10A220000126E3E72046FEF7F3FEEEE72046FEF7C1
:10A23000EFFE6FF0150491E748B103007CB1030015
:10A2400095B1030028A703009C01002028030020EB
:10A250006008002038B51C480CF0EDFD044688B3BA
:10A2600000F10C0528460CF075FE04281DD1284687
:10A2700002210CF067FE03780E3B012B05460ED839
:10A28000124A1349134840F663430CF088FB00233D
:10A2900083F31188BFF36F8F0323184602DF0E4A42
:10A2A0002878032321460EF05FF82046FEF7B0FE23
:10A2B0000A4BD3F8C4302BB1BDE8384008490948EF
:10A2C0000FF070BC38BD00BF9C01002048B10300F6
:10A2D000B2B1030095B1030040A70300D8000020ED
:10A2E000280300206008002010B5C1E900239DF874
:10A2F00008300B720C46FEF7EBFD034B0C2202FB01
:10A3000000335C6010BD00BFD00D0020F8B50246E0
:10A310000B4610480CF076FD0446C0B104210C3009
:10A320000CF0CBFD2046FEF7D3FD0B4D0C2707FBB1
:10A330000050002646802046FEF7CAFD07FB00506D
:10A3400086602046FEF7C4FD07FB00556E60204680
:10A35000F8BD00BF90060020D00D00200138C0B22B
:10A3600002289ABF014B185C0020704763B20300BB
:10A37000034B0146D3F8E40082689268104700BF9F
:10A38000D800002008B5044804210DF0DAFFBDE82C
:10A39000084000F0EBBE00BF6001002001480AF059
:10A3A0009BBF00BF1803002070B505460C4659B985
:10A3B0004FF0FF304FF0FF31FFF7A8FF044618B908
:10A3C0006FF06805284670BD2046FEF781FD164BEC
:10A3D0000C2202FB0033A61830465D800CF0C2FD53
:10A3E00003280BD9032130460CF093FD0580238A06
:10A3F000033B8370012130460CF093FD40F635435A
:10A400009D4208D12046FFF7B3FF054648B12046DC
:10A41000FEF7FEFDD6E7054821460FF03FFBFFF7AC
:10A42000BDFF0025CEE700BFD00D0020A401002015
:10A4300038B502460B46244DD5F8CC1009B900209A
:10A4400038BD05F1A8000AF0C9FD0028F7D10022A7
:10A45000002305F1CC000AF055FD044668B91B4AFB
:10A460001B491C4840F673430CF099FA84F3118899
:10A47000BFF36F8F0323184602DFD5F8C00020B169
:10A48000FEF7C6FD0023C5F8C03020460CF0E9FCFD
:10A49000C5F8C0002046FFF76BFF98B10E480AF0E0
:10A4A00063FD2046FEF714FD0C4B0C2202FB00302E
:10A4B0001F2140882246FFF7C1FD2046FEF7A8FD78
:10A4C000FFF76CFF0120BBE7D800002048B1030074
:10A4D000E0B1030095B1030080010020D00D002001
:10A4E0002DE9F04F064687B017460C4669B94FF084
:10A4F000FF304FF0FF31FFF709FF044660B96FF0FE
:10A500006805284607B0BDE8F08F887AFEF7D8FCCA
:10A51000454B834240F082800122002168460FF0C3
:10A52000D6FA2046FEF7D4FCDFF800A10C2303FB8B
:10A5300000A0C0F808D020460CF093FC014630463D
:10A54000FFF732FF054618B12046FEF761FDD8E758
:10A550000FF044FE364B1A58364B9A4220D1DFF8A2
:10A56000D8B036480FF0AFFA002181464FF4A02052
:10A57000FFF75EFF804688B9314A32484FF4F973DD
:10A5800059460CF00CFA304831460CF008FA88F3C2
:10A590001188BFF36F8F0323184602DF4C45E0D1CB
:10A5A0004FF4A022002368460AF018FD804698B1B7
:10A5B0004FF4FC73224A254922480CF0F0F9244854
:10A5C000424631460CF0EBF9002383F31188BFF3C8
:10A5D0006F8F0323184602DF2046FEF779FC0C2319
:10A5E00058431AF80060AEB12046093EFEF710FD50
:10A5F000092E0CD8DFE806F0150B0B08050B0B0B2A
:10A600000B126FF00B057CE76FF00C0579E76FF02C
:10A61000040576E7002F97D03C6072E76FF01505D0
:10A620006FE76FF06E056CE790060020D00D0020FC
:10A6300008000000400C0020E4B10300A401002049
:10A6400048B1030095B10300ECB103000CB2030064
:10A6500015B20300F7B50022114640F60340FFF79C
:10A660003FFF0446002850D1FFF7A0FC214601AA75
:10A6700041F20300FFF734FF0446002845D1019A58
:10A68000834DD168D1F80100D1F8051005F12C03F4
:10A6900003C31046FEF7BCFC214601AA41F20100AB
:10A6A000FFF71EFF044680BB0198C3685A7885F8FF
:10A6B00024205A88EA841A7985F82520B3F80720DF
:10A6C0002A85B3F805306B85FEF7A2FC214601AA66
:10A6D00041F20200FFF704FF0446B0B9019FFA6897
:10A6E00005F13406531C413218685968344603C4D6
:10A6F000083393422646F7D13846FEF789FC95F891
:10A700003030580604D46FF01204204603B0F0BD78
:10A7100001AA002142F20300FFF7E2FE04460028EE
:10A72000F3D1019A5B4BD168D1F80100D1F8051043
:10A7300003C31046FEF76CFC95F83030990619D427
:10A740004FF0FF304FF0FF31FFF7E0FD06460028E5
:10A7500000F09B8002210C300CF0B3FB012344700D
:10A7600003702246314640F66D40FFF7B9FE0446BD
:10A770000028CAD195F850301A0712D501AA002135
:10A7800042F21C00FFF7ACFE04460028BDD1019840
:10A79000C368D3F80120D3F80530C5E92623FEF7B6
:10A7A00037FC4FF0FF304FF0FF31FFF7AFFD0446AD
:10A7B00000286AD008210C300CF083FB1023002203
:10A7C00043700227072307708370C27002714271C1
:10A7D0008271C271214642F20100FFF781FE0446F8
:10A7E000002892D14FF0FF304FF0FF31FFF78EFD80
:10A7F0000646002849D008210C300CF062FB80236B
:10A800004370202304708470047144718471C77094
:10A81000C3712246314640F60140FFF761FE04460F
:10A8200000287FF472AF014601AA4FF60140FFF7FE
:10A8300057FE044620BB0198FEF7EAFB214601AA19
:10A840004FF60240FFF74CFE0446C8B90198C368B2
:10A85000B3F80130A5F87530FEF7DAFB95F87530DE
:10A860005B070DD501AA21464FF60340FFF738FEDE
:10A8700030B90198C3685B7885F87430FEF7C8FB7F
:10A8800003B0BDE8F04000F02FBA6FF068043CE779
:10A89000D80000206801002073B5264D0646D5F883
:10A8A000E4000EF036FF00283CD06FF0020105F105
:10A8B00088000DF070FD01210DF043FD10EA010448
:10A8C00033D11D4B1E600A4605F1A8000FF0FFF8BA
:10A8D00005F1CC000FF0A3F818480FF073F91849F0
:10A8E000164800946FF007034FF496620AF0FAFCE2
:10A8F000144912480FF07EF9D5F8E4001249836834
:10A900001B689847044628B93EB9FFF7A3FE78B9FB
:10A91000FFF738FD204602B070BD05F178000AF05F
:10A92000DBFCF7E76FF01204F4E76FF07704F1E770
:10A930000446EFE7D8000020DC0D0020600800206E
:10A94000002A00205AB203003DA1020010B5FFF713
:10A9500081FE044608B9FFF715FD044B1B681BB1C7
:10A960002046BDE81040184710BD00BFDC0D002098
:10A9700038B5032104460C300CF0E4FAE36805789E
:10A98000B0F80100197840F6354398420AD02246C3
:10A99000FFF754FB35B104480AF0E6FABDE8384049
:10A9A000FFF7FCBC38BD00BF8001002038B5042192
:10A9B00004460C300CF0C6FA4578017840882246EF
:10A9C000FFF73CFB35B104480AF0CEFABDE8384049
:10A9D000FFF7E4BC38BD00BF8001002070B54FF028
:10A9E000FF320D464FF0FF3300210646FFF7C2FA53
:10A9F000044660B90A4A0B490B481A230BF0CFFFF3
:10AA000084F31188BFF36F8F0323184602DF0221FE
:10AA100004F10C000CF055FA06704570204670BD2C
:10AA200066B20300E0B1030095B10300F8B50A4D2A
:10AA3000EF7906460024E3B29F4202D86FF001008E
:10AA400007E0294630460DF0E1FC0735631C08B1EC
:10AA50002046F8BD1C46EEE7D800002070B5144E25
:10AA60000622314604460FF03EFBD8B14FF0FF30CE
:10AA70004FF0FF31FFF74AFC0546A8B106222146F8
:10AA80000C300CF024FA0022294642F20500FFF7B0
:10AA900027FD40B93346226843F81D29A288B280B9
:10AAA00001221A77002070BD6FF06800FBE700BF3D
:10AAB000F500002037B504460D4689B118492846EF
:10AAC0000DF0A4FC60B9174A2968C4EBC404A318AC
:10AAD0001151AA889A80AA799A71002003B030BDDA
:10AAE00068460DF0D3FB0028F8D16846FFF79EFFBB
:10AAF0000028F5DA0B4A00989DF80610C4EBC40450
:10AB0000A3181051BDF8040098809971002DE4D06D
:10AB100012592A609A88AA809B79AB71DDE700BF41
:10AB200015B10300D800002070B5044611B16FF0D4
:10AB3000150070BD80B11C490DF068FC60B920465D
:10AB4000FFF774FF002829DA2378012BEFD1A379CE
:10AB500003F0C003C02BEAD1144DEB79012B20D0B8
:10AB6000BFF35B8FD5F88830BFF35B8FDB0707D46B
:10AB7000002CDCD00C4920460DF048FC0028D6D132
:10AB8000EE792146731C3046EB71FFF793FF08B94D
:10AB90003046CEE7EB79013BEB71CAE76FF0770007
:10ABA000C7E76FF00B00C4E715B10300D800002021
:10ABB0002DE9F3410446D8B101AA002141F2090070
:10ABC000FFF78EFC054698B9019E1249D6F80C8015
:10ABD00008F10107062238460FF085FA28B10E4920
:10ABE000062238460FF07FFA30B93046FEF710FAE9
:10ABF000002002B0BDE8F081D8F80130C4F801307F
:10AC0000BB88A4F8053030462570FEF701FA012014
:10AC1000EFE700BF22B103001CB1030007B568468F
:10AC2000FFF7C6FF044BD87118B169460020FFF743
:10AC300041FF03B05DF804FBD8000020F0B5294DBA
:10AC4000EE7989B0002E46D195F87630DB0722D513
:10AC50006A4631464FF60940FFF742FCD8B9DDF8A5
:10AC600000C0DCF80C406378012B1E4628BF01268B
:10AC700073B1A31C02AA123418685968174603C797
:10AC80000833A3423A46F7D1186838609B88BB80E6
:10AC90006046FEF7BDF9EE71002416260127EB7918
:10ACA000E0B2834202D8B3B1002012E008AB06FB49
:10ACB0000033694653F8182C33F8143CCDF80120C2
:10ACC000ADF805308DF80070FFF7F4FE0134002870
:10ACD000E5D009B0F0BD0021084609B0BDE8F0405C
:10ACE000FFF722BFD800002010B50A4CE3790BB162
:10ACF000002010BDFFF792FF0028FAD1E379002B66
:10AD0000F6D1FFF79BFF0028F3D1601CBDE810408F
:10AD1000FFF7A4BED8000020034B002299689A8058
:10AD20001960024B1A727047380300207524002006
:10AD3000F0B5054687B00F464FF0FF304FF0FF31BA
:10AD40001646FFF7E3FA0446C0B106210C300CF0BA
:10AD5000B8F8468000264770057006714671094AAA
:10AD6000009503A920460523FFF7BEFA3246214687
:10AD700042F24200FFF7B4FB07B0F0BD6FF068008D
:10AD8000FAE700BF6001002038B50546407A0C465E
:10AD9000FFF7E4FA2073A87AFFF7E0FA607395F9F9
:10ADA0000C30A37195F90D306371EB7A2371EB8947
:10ADB00063812B88103BDBB20B2B96BF054A052322
:10ADC000D35CE3712B8883F0100303F01F0323810E
:10ADD00038BD00BF9CB2030008B50C4B02464009C9
:10ADE00003EB80000DF044FB02F01F0340FA03F375
:10ADF00013F0010006D122B905480DF039FB40F3EC
:10AE0000C01008BD6FF07700FBE700BFE00D002029
:10AE1000600100202DE9F04788B08A480022002315
:10AE200009F0A8FF002840F09B808748864D0DF070
:10AE30001FFB10F001034ED02B1D93E8070008AB59
:10AE400003E9070081480DF013FBC0F340137E486F
:10AE50000DF00EFB0246002873D073B17C490C2222
:10AE600005A80FF040F9002875D0002211461046C1
:10AE7000FFF75EFF044600286ED19DF815301907D4
:10AE800003F004056FD5002D40F0938028462E4630
:10AE9000BDF81A3063B1BFF35B8F6C4B53E8001FF2
:10AEA00041F0400143E80012002AF7D1BFF35B8F65
:10AEB0000DF103010DF0CFFA044600284CD14FF0FC
:10AEC000FF304FF0FF31FFF721FA074600287BD112
:10AED0006FF0680440E05D485E4A0DF0C9FA10F07A
:10AEE000800F0ED09089D1891269ADF816004FF409
:10AEF0008074ADF81440ADF81810ADF81A30079210
:10AF0000A0E7554C2068616805AB03C3A0681860D2
:10AF100092F891304C481E0744BF05238DF8153038
:10AF20000DF0A6FA840706D53023ADF8183060235B
:10AF3000ADF8163086E744480DF09AFA4007F3D48E
:10AF400080E743B10146FFF7F3FE044620B9404BCA
:10AF50002861C3E9010000243A4809F083FF204634
:10AF600008B0BDE8F087BDF816309DF81400ADF8C4
:10AF70000530BDF818308DF80400ADF80730D5B1B4
:10AF800001AEBDF81C200AB9BDF81620BDF81E3070
:10AF90000BB9BDF818309DF814108DF80C10ADF8F1
:10AFA0000D20ADF80F305EB13078012808D103AD27
:10AFB0006EE70026E5E7421E5042504101AE67E7CA
:10AFC0004B1E58425841F2E700F10C090321484654
:10AFD0000BF077FF9DF815809DF803300370C8F3E0
:10AFE000400382468470437036B10123837005228A
:10AFF000314648460BF06BFF55B19AF8023043F0EA
:10B0000004038AF802300522294648460BF05FFF08
:10B010000022394642F24100FFF762FA0446002856
:10B020009AD1BDF81A2008F001010120FFF780FE37
:10B030000446002890D108AA12E90700044B83E8CF
:10B04000070088E7FC0D0020E00D002060010020D3
:10B05000F00D0020D800002068A603002DE9F3477A
:10B0600005463A480DF004FA9946034637480DF074
:10B07000FFF91446DA070E4602D50B895B0761D447
:10B0800028460DF01CF9002846D0294668460DF0E8
:10B090000BF92F4F3B68A3B120460BF063FFB4F8C8
:10B0A0000480A4F80490054623463F68F27996F997
:10B0B00005106846B847A368A4F8048013FA85F51C
:10B0C0002560244BC6F800D01B68002B38D01D68C3
:10B0D00005B1083D53F8082CAAB12F46A3F1080585
:10B0E00020460BF03FFFB4F804A0A4F804902B68AE
:10B0F0008046214630469847A368A4F804A013FA76
:10B1000088F323603D46DDB1AF682B68B7B1083FD7
:10B11000002BE5D13D46F7E72B78FF2B09D10E4BED
:10B12000186800909A889B798DF80630ADF8042055
:10B13000AFE729460DF072F90346F1E7002BCFD1B6
:10B140000023336002B0BDE8F08700BFE00D0020AF
:10B150002C0E0020240E002015B10300024B00220B
:10B160001A60FFF7D9BD00BF2C0E002010B5094CA6
:10B170004422002120460EF0AEFF04F11C000EF028
:10B18000BDFB04F130000EF0B9FBBDE81040FFF745
:10B19000E5BF00BFE00D0020032870B5054603D1D0
:10B1A000BDE87040FFF736BEFFF716FE0446D0B983
:10B1B000BFF35B8F05F01F0301269E400B4B6D090B
:10B1C00003EB850555E8003F334345E80032002A8C
:10B1D000F8D1BFF35B8FFFF71DFE044618B1F143B2
:10B1E00028460DF04BF9204670BD00BFE00D002051
:10B1F000032808B50AD000F01F0301219940054B30
:10B200004009C94303EB80000DF038F9BDE8084060
:10B21000FFF700BEE00D002010B50020FFF7E8FFAB
:10B2200020B10AF073FB0020FFF7E2FF6FF040014E
:10B2300011480DF023F910486FF480710DF01EF9DC
:10B240000E4B1B68B3B11C6804B1083C53F8043CB6
:10B2500003B1984774B1A268234642B15B68A2F17A
:10B260000804002BF5D1F6E7BDE8104018476368E5
:10B27000002BF9D110BD00BF60010020240E00207A
:10B280002DE9F04F00F10C0989B0074648460BF054
:10B2900061FE06464D484E4DDFF838A10DF0E8F846
:10B2A00000F00103494802930DF0E2F8C0F3800377
:10B2B000019326B1029B2BB13B8A172B0AD809B008
:10B2C000BDE8F08F2B7A0BB1FFF726FD019B002B19
:10B2D000F2D1F4E7182148460BF034FE3A8A90F890
:10B2E00017B003885A45C3F34118044603F010030E
:10B2F0000AD2384601930BF080FD019B002BDED172
:10B30000334B02221A72DAE77BB104A9FFF73CFD46
:10B31000E37D4A4604A9A01CFFF7A0FEE17D484654
:10B320000BF008FE013EF6B2C3E72B7A2BB9B8F159
:10B33000000F19D104A92046E8E7C17AEA799142C1
:10B340000DD1811C0722284603930EF0CCFE039BEF
:10B3500028B9B8F1020F15D1FFF7DEFCDEE7B8F12E
:10B36000000FE7D0012BD9D0B8F1020FF4D0D4F8F8
:10B3700002202A60E288E37AAA80227AEB71012314
:10B38000AA712B72BAF80430BAF806205B449342D3
:10B3900005DD02232B72B8F1010FBFD0DCE72B7A59
:10B3A000022BF8D0F9685A4650460BF090FDB8F1E0
:10B3B000010FB7D004A92046FFF7E6FCBAF8043025
:10B3C000524604A9A01CFFF749FEC5E7E00D002086
:10B3D00075240020380300202DE9F04F00F10C0700
:10B3E00085B0064638460BF0B5FD05462548DFF822
:10B3F00098B00DF03DF800F0010922480DF038F842
:10B400004FF0010AC0F3800815B905B0BDE8F08F10
:10B41000B9F1000F02D1B8F1000FF6D0338A082B32
:10B42000F3D9092138460BF08DFD037A328A0133B6
:10B430009A420446E9D3ADF80CA07F238DF806307C
:10B44000037A034469465B7A8DF80530FF238DF853
:10B4500004300023ADF80A3002788DF80720042A62
:10B4600098BF1BF80230ADF80830037A3A46013035
:10B47000FFF7F4FD217A38460131013D0BF05AFD0A
:10B48000EDB2C1E7E00D0020A8B20300F8B5054613
:10B4900022480CF0EDFF43070F463CD52A78012ADD
:10B4A00003D96FF015042046F8BD6B780F2BF8D840
:10B4B0006888031F9BB243F6FC74A342F1D8A988A5
:10B4C0000B1F9BB2A342ECD88842EAD37AB9144846
:10B4D0000022002309F04EFC04460028E3D1FFF7C8
:10B4E0007BFC044640B10E4809F0BCFCDBE70CF0E5
:10B4F000B0FF0028EBD1D4E728686968094E0A4BF1
:10B5000003C6A868306020461F60FFF745FE04466A
:10B5100006F12400E8E76FF00A04C4E760010020A8
:10B52000100E0020E40D00202C0E00200A4B19689C
:10B5300000F1080231B98160596839B9C3E90022C4
:10B54000002070478A4204D00968F3E70A605A6015
:10B55000F6E76FF010007047240E002000F1070C92
:10B560002CF0030C10B4541E1860A4B2ACF80020E8
:10B57000023A93B201FB04F24FF0000C40F802C013
:10B5800074B103FB011403FB01F22044121B4FF6BC
:10B59000FF7C013B9BB263458050A0EB0100F8D1DA
:10B5A00010BC70470346006810B102680AB91A60FF
:10B5B000704700F1070C2CF0030CD11DBCF800C043
:10B5C00021F003010CF1FF3CA1F800C0EFE700BF40
:10B5D0000B687BB1073323F003031A88013292B260
:10B5E0000346D1F800C043F807CB23F003031A80C9
:10B5F000086070470122F3E7401A90FBF2F080B236
:10B60000704700BF531E11449BB242B1DB43013867
:10B61000CA1811F8013D00F8013F9142F9D1704775
:10B62000014402E010F8013B1BB98842FAD1002026
:10B6300070470120704700BF10600860704700BF6E
:10B64000D2F800C0CCF80000D2F800C0CCF804104A
:10B6500010607047884203D01AB143681360704786
:10B66000002070470B68834209D02AB158681060E7
:10B670001A680A6018467047002BF9D1FAE70023D0
:10B68000F8E700BF2DE9F041DFF830800C4E0C27C1
:10B6900006F130044546221D214628460C3CFFF7A2
:10B6A000CBFFA642A5F10805F5D1043F3B1DA8F14B
:10B6B0002008A6F13006EBD1BDE8F081AC0E0020E9
:10B6C000380F002010B403468C469AB101EB4101BB
:10B6D000144803EB4304090101EB84010144487A57
:10B6E0000C7AA04204BF0130087210BC61461846B3
:10B6F00005F01CBF01EB41020A4C120100EB4003B4
:10B7000002EB830323449C7ADA7AA24201D010BC74
:10B71000704701329A72044B01225A5410BC05F052
:10B7200035BF00BFB40E0020300E0020F8B506462D
:10B730001C460D4602B322786378D21A12F0030237
:10B740003AD1274F71004FEA450C3144AC4489008F
:10B7500001EB0C1101330431DBB27A1860682370FD
:10B760002146FFF76DFF1F4B0122294630465A55EF
:10B7700005F00CFF0020F8BD05F0F2FE0028DAD03D
:10B780002946304605F0DEFE0028D4D005EB450200
:10B7900006EB4601124F6378120102EB81023A4434
:10B7A0007100907AD27A90424FEA450C0CD0207802
:10B7B000C01A10F00302C8D0012A03D00133DBB253
:10B7C0002370D0E71046F8BD2278D21A920702D033
:10B7D0000233DBB22370D4E902039847CAE700BF03
:10B7E000B40E0020300E00202DE9F04FDFF86491F8
:10B7F00019F8003089B0002B5AD0DFF85CA13C2248
:10B8000004234FF0000B00EB400712FB003303242E
:10B81000CDE904BB09F800B00AEB071703930294C3
:10B820008346B8460023B96A58F8240F079307AA3D
:10B83000FFF710FF044607AAB4B1079D2E78697878
:10B84000761A06F00306012E35D02B78591A01F02E
:10B8500003010129DBB23DD1D7E90901FFF7FAFE67
:10B86000044607AA002CE8D197F82E3097F82F202D
:10B870009A4203D087F82F300123049397F82C3095
:10B8800097F82D209A4203D087F82D300123059395
:10B89000029B5D1EEBB2FF2B0293A7F10C07C0D1F8
:10B8A000049AD846DDF814B012B1BBF1000F45D0B0
:10B8B00009B0BDE8F08F01396970079BD3E9020335
:10B8C0009847079D2A786978D3B2521A02F003028A
:10B8D000012A21D0B86A019300224146FFF7C2FE37
:10B8E0006C60019B6A786B702B789B1A03F00303E2
:10B8F000012B08D0D7E9090107AAFFF7ABFE012EFB
:10B90000044698D10EE0039B6A70294620460AEB54
:10B910000302FFF795FEEDE7D7E9090107AAFFF754
:10B9200099FE0446029B8BB101235946584609F8FB
:10B930000B3005F02BFE09B0BDE8F08F5A464146AA
:10B94000404609B0BDE8F04F05F0F0BD002C8BD0AB
:10B95000EAE700BF300E0020B40E002030B5027EB2
:10B960000568FF2A18D002EB820302EB43038A42E8
:10B9700005EB83032BD04FF0000C01E091420DD07A
:10B9800096461A789C6802EB820302EB4303FF2A77
:10B99000A44405EB8303F1D1002030BD714519D0DB
:10B9A0000FFA8EFE98681B780EEB8E020EEB420E9D
:10B9B000FF2B05F82E3008D003EB830203EB420384
:10B9C00005EB83039A6802449A60604430BD964652
:10B9D0004FF0000C1A780276E2E700BFA2EB010CF0
:10B9E0001CF4000F10B4836844690AD12CF07F4C1A
:10B9F0006344A3420DD8E41A00234461836010BC61
:10BA00007047891A21F07F418B4208D95B1AA34203
:10BA1000F1D91B1B00244461836010BC70470C44A7
:10BA2000E41AE9E72DE9F04F87B0427A03684468E9
:10BA30000293002A00F0F380531EDBB204EBC30331
:10BA40008B46039305948246039B5A685E78049262
:10BA5000BBF1FF0F69D00BEB8B030BEB4303029A97
:10BA6000CDF804B012F823B04FEA830802EB830448
:10BA700000254FF0FF0C84F800C0DAF800709AF847
:10BA8000183007EB08096345D9F808100FD1C0E05A
:10BA9000091A06D1B9F81E80BEF81EE0F04500F282
:10BAA000AC8017F82220FF2A9C46134609D003EBEE
:10BAB000830203EB420207EB820EDEF808008842A5
:10BAC000E6D9BCF1FF0FC9F8081089F8003000F082
:10BAD00090800FFA8CFC0CEB8C020CEB420C019A60
:10BAE00007F82C20FF2B08D003EB830203EB420363
:10BAF00007EB8307BB685B1ABB60A37801336370F5
:10BB0000002DA5D06B6A4FF000022A70AA7013B105
:10BB1000A96A002098476368002B99D16B6A236259
:10BB2000AB6A6362BBF1FF0F95D1039B049F9A78C8
:10BB300006EB860306EB4303711CB24207EB830559
:10BB4000CEB25CD00399087817F82310B04208BF32
:10BB500000260429ECD16A78029902EB820802EBF4
:10BB6000480801EB8804012094F801C0A1788C45B5
:10BB70004FEA88080BD04FF0000207F823206B6AC9
:10BB8000A8700BB1A96A9847039B9A78D0E7AB8A53
:10BB900001924FF6FE729342DAF8141007D04FF676
:10BBA000FF729B1AB3FA83F35B0984F82830EB68C1
:10BBB00063602B69236200226262AB8A4FF6FD70DC
:10BBC000834288BF1346A383AB69A361EB69E3603B
:10BBD0002B6A2361AB68A36062616A682046FFF745
:10BBE000FDFE4FF00003E383E37843F00103E370CD
:10BBF0003FE7019A8AF8182074E7014661E7039B42
:10BC000005995A701A469142A3F1080307D003938D
:10BC10001AE707F80830019B8AF818306DE707B07B
:10BC2000BDE8F08F2DE9F04F467E01238BB083767F
:10BC3000002E40F0BB80037EFF2B834600F0B580D2
:10BC400005F0F6F8DBF81430DBF81C20DBF8008098
:10BC5000C01A20F07F4A9BF81830524594BF00224A
:10BC60000122FF2B039200F046811FB2B1463546F8
:10BC70003B4634E0039B23B9DBF81C304B4540F2D4
:10BC80009B80E78BE3786FF300030137E37094F850
:10BC90002830BFB20EF1FF3EE7835FFA8EFE002B25
:10BCA00000F08780A38BBB4280F08380E76884F834
:10BCB00002E087B16069DBF81430626AA9EB00002A
:10BCC0001844236901930023009320F07F404FF62E
:10BCD000FF730021B847029BFF2B44D01BB203EB3C
:10BCE000830203EB420308EB8304A26852453AD86F
:10BCF00018F8233094F802E002936378A3EB0E0364
:10BD0000DBB2012BAAEB020A9144E4D1A669002E12
:10BD1000B0D1E7680EF1FF3E84F802E0002FDAD0E0
:10BD2000E18B626A60690B4621690191E17801F05B
:10BD300001010091DBF81410A9EB0000084420F089
:10BD40007F400021B847002E4FF00003E383039BA0
:10BD500018BF01230393E378002262F30003E3702A
:10BD6000029BFF2BBAD12E469BF80B309BF80A2082
:10BD70009A4208D10132D2B2022A1ABF164633467D
:10BD800000238BF80B600BEB83030022C3F80C90AD
:10BD9000DBF824408BF81A205B46012204210320A3
:10BDA000A4460BB0BDE8F04F604786760BB0BDE807
:10BDB000F08F84F802E08EE7029BFF2B79D0DDF84C
:10BDC00008C0A38BE18B606805900CEB8C02994254
:10BDD0000CEB420228BFCB1A08EB82022CBF9BB2AD
:10BDE0000B4603FB00039068049386420FFA8CF322
:10BDF00056D3CDE9065E8446DDF814E0099105933B
:10BE0000089116E0002D3FD1E178D37801F00101CF
:10BE100003F00103994233D31378FF2B3CD003EB9B
:10BE2000830203EB420208EB820290688444664579
:10BE300032D39369002BEFD0D38B918B55688B4213
:10BE4000E0D2002DE8D0BEF1000FE5D01F468B42B6
:10BE5000E2D3049B07FB05573F1ABB422CBF0027C8
:10BE60000127E378D17803F001054B4001F001018F
:10BE7000A94203F0010303D8002BCDD1002FCBD072
:10BE8000DDE9065E099FFDE6BEF1000F02D05F1AF4
:10BE9000BFB2DCE77746E4E7DDE9065E059B08997B
:10BEA000E7680EF1FF3E84F802E0002F3FF417AF81
:10BEB00037E72E46E5680EF1FF3E84F802E0002DDC
:10BEC0003FF452AF2169E38B6069626A0191E178C6
:10BED000039F01F001010091DBF81410A9EB0000B1
:10BEE000084420F07F403946A847E378E78367F3AA
:10BEF0000003E37038E7B14636E700BF837E002BCE
:10BF000040F0CE822DE9F04F467E8FB08246002E63
:10BF10007AD1837AC27A012141769A4241690991A4
:10BF200000F0BF820133DBB2022B12BF1A46324649
:10BF3000334600EB82028372D268099B0592134458
:10BF400023F07F43436101279AF818300B9304F0E4
:10BF50006FFF9AF80920DAF800300193531EDAF8DF
:10BF600004500390DBB2002A00F0E182CDE90C67B7
:10BF700005EBC309FF2304930695CDF808A0D9F873
:10BF800004B04FF0000A99F8032099F802800FFAE4
:10BF900088F101EB810008F1010301EB4004424507
:10BFA000DBB20BEB84055FD099F80010994208BF13
:10BFB000002389F802301BF824006978042839D955
:10BFC00001EB810301EB4307019B03EB8706082884
:10BFD0007278B37822D8D21A12F0FF022CD1062838
:10BFE0001CD1029BDB7E8B424FD00BF824A06B6AE6
:10BFF00085F802A0002BC6D0A96A0020984799F8BE
:10C00000032099F80280C2E7446A04210346012212
:10C010000420A4460FB0BDE8F04F60470BF824A001
:10C020004FF00103AB706B6A002BACD0A96A012002
:10C030009847A8E79846AAE705281DD16B684BB931
:10C04000AB683BB9EB682BB92B691BB96B6933F053
:10C050007F43E3D0012A1AD0029B04215C6A0122AB
:10C060000846A04789F80280069A9145A9F108037D
:10C0700000F0DB80994682E7012A00F098800628CC
:10C08000EAD1029BDB7E8B42AFD16968AFE0DDF87D
:10C0900008804046FFF762FCB060D8F814C0039BEC
:10C0A000059AA3EB0C0323F07F431344984240F21C
:10C0B000B680C01A7368002B53D0AB8A002B50D0C7
:10C0C000013B9AB2AA827168F38B884224D9CDE9E8
:10C0D00007B401F101081BE0726ADFF8BCB2AF4C93
:10C0E0009344A34584BF02F1E87202F5D432C646F8
:10C0F000346A94BF8E4602F5A572013BA0EB0E0098
:10C10000121B9BB288427262F38340F24981AA8A71
:10C110009A42E1D3DDE907B4934221D24A1CCDE92A
:10C12000072BD6F820E00A94726ADFF86CB29B4CB9
:10C1300072449344A345884607D8A2F1E872A2F559
:10C14000D432DDF81C80A2F5A57201339BB2726275
:10C15000F383AA8A9A424044E6D8DDF820B00A9CCC
:10C16000B2836B680344B360AA6873691344736154
:10C17000039A61463046FFF731FCEA68B36913441D
:10C18000B3612A6993428CBF9B1A0023B361AB7DD4
:10C190001BB1F27863F30002F270019B049A03F87A
:10C1A000272073786A780492013373701DE706289C
:10C1B0003FF417AF029F3846FFF7D0FBB378B0606B
:10C1C0007370FA7E6B789A427FF40FAF1BF82430BD
:10C1D000062B3FF45AAF029AFF23D3761BF8243084
:10C1E000062B3FF452AF082B3FF44FAF0399029B4D
:10C1F0005A698B1A1E0209D4059A23F07F4313440F
:10C200000299CA699A4288BFCB61EEE6059B521A31
:10C2100022F07F4293428CBF9B1A0023F0E77269A1
:10C2200013441B1A7361002044E7DDE90C67DDF855
:10C2300008A09AF81850002F00F0BA80039B099AC2
:10C24000DAF800809B1AFF2D23F07F4900F08681E9
:10C250000027CDE90665AB46059E019707E0A37868
:10C2600063709AF818B0BBF1FF0F00F092800BEBEF
:10C270008B050BEB450508EB8504A368B34200F280
:10C28000AB80019AA178E08B1A4401926278521A2D
:10C29000DAF81C108B42A6EB0306A9EB030931BFA9
:10C2A000C91A4FF0FF3300218AF81B30CAF81C105E
:10C2B000A369D2B20BB1022A14D00023A36018F8EC
:10C2C00025308AF818306168C1B9002AC7D0012A20
:10C2D00001D00028C3D0236A002BC0D0616A01209E
:10C2E0009847BCE7002800F0A3800023A36018F85B
:10C2F00025308AF8183061680029ECD0B4F81EC0E7
:10C30000BCF1000F50D1B4F81CC06046D4E90873EA
:10C31000CDE90284002201F1010E04E001388846D3
:10C32000441C424411D0DFF870801C4C3B449844BC
:10C33000A045F3D8A3F1E8730138A3F5D433F04650
:10C34000441CA3F5A5734244EDD1DDE9028494F8C1
:10C3500028006362002800F0A780099BA260019A70
:10C36000A4F81EC09A18DAF8141022F07F42204672
:10C37000FFF734FB049B08F825306378CDF810B044
:10C380000133DBB263709AF818B0BBF1FF0F7FF492
:10C390006EAFDDE9066526E05A2B17FF592B177F94
:10C3A000DDE907B4AA8AB7E6A37863700020ADE799
:10C3B00004995046FFF736FB9AF818300B9A9342CF
:10C3C0001AD1954218D100238AF819309AF81A30F8
:10C3D00043BB0FB0BDE8F08F32469B1AA360079DA8
:10C3E000069E9AF818B00B9B04995B455046E1D025
:10C3F000FFF718FB9AF81830FF2B00F09B800B9A80
:10C40000FF2A00F08780DAF8002003EB830103EBBA
:10C41000410302EB8302D2F80880B8F1000F15D176
:10C420008AF81980DAF82440534601220321EFE507
:10C43000CAF81C308AF81BB0A06018F825308AF8BA
:10C440001830616800293FF40AAF57E704F0F0FCA8
:10C450000A270446DAF81430E21A22F07F429045A7
:10C4600007F1FF3702F103014AD941452CBF5B18A0
:10C47000434423F07F452846DAF82830984704F0F3
:10C48000D7FC031B2D1B23F07F43033325F07F458F
:10C49000AB4236D90FB10446DCE700DE0446D9E7EB
:10C4A0007047374605964FE591457FF656AF0390A6
:10C4B000481C0290DFF8A8E00398CDF8148005E04E
:10C4C000884642440130914580B212D9DFF8948009
:10C4D0003B449844F045F3D8DDF80880A3F1E873B5
:10C4E0004244A3F5D43301309145A3F5A57380B23E
:10C4F000ECD86044DDF8148063621FFA80FC2CE7FE
:10C50000012600238AF819309AF81A3033433FF491
:10C5100060AF87E704F08CFC044604F065FC9AF8F1
:10C52000183000287FF46FAFCAF814406BE7FF2380
:10C5300004937EE604F068FC044600287FF443AFD1
:10C54000CAF81C0004F074FC8AF81940CAF81400F8
:10C550009AF81A30002B3FF43CAF63E7AB4642E752
:10C56000592B177F5A2B17FFF8B5069F9DF81C50C3
:10C57000089CC8B9154E32605A1E317273727760CA
:10C58000D2B283B107EBC2025460104612F80839E8
:10C5900003EB830103EB41018742A5EB030304EBAB
:10C5A0008104DDB2F0D10DB10120F8BD099B3362E9
:10C5B0000A9B7362FF240B9BB362347604F038FC51
:10C5C00075817061F476F5612846F8BD740F00201E
:10C5D00040B9064B1A7EFF2A01D1187270476FF0DE
:10C5E0000F0070476FF01500704700BF740F0020F8
:10C5F00010B40A4B2C2202FB0032546A5CB100EBEF
:10C60000800200EB420003EB8003A446012210BC31
:10C6100003210220604710BC704700BF740F002048
:10C620002DE9F843274E04462C2505FB046504EB51
:10C63000840704EB470406EB84066C68084604EBA9
:10C64000C00714F83080FC7897F801E0BDF830108E
:10C6500004F1010C5FFA8CFCE04598BF4FF0000C30
:10C66000E6452CD0D7F8049004EB840E04EB4E0E74
:10C6700009EB8E044FF0040809F82E806360089BD4
:10C68000A3600A9BE3600B9B23610D9BA3610E9B40
:10C69000E3610F9B2362109B6362119BA3620223E1
:10C6A0006270A182A37087F803C0D5E90835984766
:10C6B000334641460022A847A078BDE8F883012010
:10C6C000BDE8F883740F002010B58AB00C9C00946C
:10C6D0000D9C0294002401940E9C0394BDF83C40F0
:10C6E0000494109C0594119C0694129C0794139C2E
:10C6F0000894149C0994FFF793FF0AB010BD00BF83
:10C700002DE9F047264DBDF82C709DF83090044679
:10C7100008462C2101FB045104EB840604EB46047B
:10C7200005EB84054C6804EBC00614F83080F478FF
:10C7300096F801E004F1010C5FFA8CFCE04598BF2B
:10C740004FF0000CE64528D0D6F8048004EB840EA8
:10C7500004EB4E0E08EB8E044FF0050A08F82EA0ED
:10C760006360089BA360099BE3600A9B23610D9BA8
:10C7700063620E9BA36202236270A78284F8169004
:10C78000A37086F803C0D1E9083698472B460022EB
:10C790000421B047A078BDE8F0870120BDE8F0870C
:10C7A000740F00202DE9F04106461F4D06EB86046C
:10C7B000084606EB44042C2105EB840701FB0654D4
:10C7C000666806EBC00516F8306095F803E06978F6
:10C7D0000EF1010C5FFA8CFC664598BF4FF0000C1F
:10C7E00061451ED069680EEB8E060EEB460E01EB1E
:10C7F0008E064FF0060801F82E807360069B736268
:10C80000079BB36202237270B37085F803C0D4E94A
:10C81000083598473B4600220421A847B078BDE878
:10C82000F0810120BDE8F081740F00202DE9F04176
:10C8300006461E4D06EB8604084606EB44042C21F2
:10C8400005EB840701FB0654666806EBC00516F885
:10C85000306095F803E069780EF1010C5FFA8CFC0A
:10C86000664598BF4FF0000C61451CD069680EEB1F
:10C870008E060EEB460E01EB8E064FF0070801F810
:10C880002E807362069BB36202237270B37085F8C8
:10C8900003C0D4E9083598473B4600220421A84745
:10C8A000B078BDE8F0810120BDE8F081740F002070
:10C8B00004F0BEBA401A20F07F4070474FF4845015
:10C8C00000217047002303700B70704738B5054690
:10C8D00000200C4602F0C6FB10F0060F0ED13DB949
:10C8E000074B44B120681860A2889A80002038BDA8
:10C8F000044B002CF6D11C609C80F7E70C2038BD5F
:10C90000A80F0020A00F00200128034605D8044AE4
:10C910000448002B08BF104670470020704700BF36
:10C92000A80F0020A00F002001280AD8064A074BB4
:10C93000002818BF1346186808609A888A8018462D
:10C940007047002318467047A00F0020A80F002052
:10C9500010B5044602F05EFF38B903F071FB48B928
:10C960002046BDE8104008F0FFBA00DE03F068FB87
:10C970000028F5D000DE2046BDE8104008F0F4BAEB
:10C980000860014808F0F0BADC17002008F0ECBAA3
:10C990002DE9F0471C4F3B8898422CD913F0FF0536
:10C9A00027D0DFF868A0DFF868809AF81940DFF830
:10C9B00064909AF818300134E4B2062C08BF0024C1
:10C9C000A342404615D0FEF7EDFD0646484686B127
:10C9D000FEF7E8FD88B106609AF819304AF823009E
:10C9E0003B888AF81940013D013B15F0FF053B806B
:10C9F000DFD1BDE8F0870546D3E730460449BDE8FE
:10CA0000F047FEF7E5BD00BFE40F0020C815002089
:10CA1000E80F0020241000202DE9F0435A4EDFF8E3
:10CA20006C815B4F83B0D6E9000101AAFEF712FECC
:10CA3000044648B3019D002D00F093802B79013B03
:10CA40002C2B18D8DFE803F0374F1717372317239D
:10CA5000234517171717171717171717171717172C
:10CA60001717171717171717171717171717171756
:10CA700017171717370000DED6E9000101AAFEF7E5
:10CA8000E9FD04460028D5D103B0BDE8F083314666
:10CA900070680022FEF7E6FD2B7F03F00F03072BE3
:10CAA0002946204660D0394AFEF7CAFD384B18683F
:10CAB00008F05AFAB7E7314670680022FEF7D2FD57
:10CAC000424629462046FEF7BBFD386808F04CFA7E
:10CAD000A9E7314670680022FEF7C4FD29462046CA
