:020000022000DC
:1070000000490020B99602004DE50300A596020054
:10701000A5960200A5960200A596020000000000B9
:107020000000000000000000000000008197020046
:10703000A5960200000000001D970200A596020020
:1070400051990200856D0300519902005199020087
:107050005199020051990200519902005199020080
:107060005199020051990200519902005199020070
:107070005199020051990200519902005199020060
:107080005199020051990200519902005199020050
:107090005199020051990200519902005199020040
:1070A0005199020051990200519902005199020030
:1070B0005199020051990200519902005199020020
:1070C0005199020051990200519902005199020010
:1070D0005199020051990200519902005199020000
:1070E00051990200519902005199020051990200F0
:1070F00051990200519902005199020051990200E0
:1071000053B94AB9002908BF00281CBF4FF0FF310E
:107110004FF0FF3000F00CB8ADF1080C6DE904CE73
:1071200000F022F8DDF804E0DDE9022304B0704746
:10713000704700BF10F8012B11F8013B012A28BF4E
:107140009A42F7D0D01A7047034611F8012B03F882
:10715000012B002AF9D17047034613F8012B002AAE
:10716000FBD1181A013870472DE9F04786468C4646
:107170000846089E154674461946002B40F0C2800A
:107180008542B2FA82F245D94AB1C2F1200300FA2F
:1071900002FC2EFA03F3954043EA0C0C94404FEAAC
:1071A000154EA8B2BCFBFEF8230C0EFB18CC08FB56
:1071B00000F943EA0C43994528D9EB1808F1FF3749
:1071C00004D2994502D9A8F102072B44A3EB090385
:1071D000A4B2B3FBFEFC0EFB1C330CFB00F044EA34
:1071E0000344A04214D92C190CF1FF3304D2A0425D
:1071F00002D9ACF102032C44241A43EA07401EB121
:10720000D440002334607360BDE8F0874746DDE773
:107210006346F1E792BB431B01214FEA154EAFB223
:10722000B3FBFEFC200C0EFB1C330CFB07F840EA02
:107230000343984562D9EB180CF1FF3004D298450E
:1072400002D9ACF102002B44A3EB0803A4B2B3FBB8
:10725000FEFC0EFB1C330CFB07F744EA0344A74279
:107260004ED92C190CF1FF3304D2A74202D9ACF14C
:1072700002032C44E41B43EA0040C0E7C2F12003B0
:1072800020FA03F1954090402EFA03F303434FEAAE
:10729000154EAFB2B1FBFEFC0EFB1C10190C0CFB23
:1072A00007F841EA0041884504FA02F422D9691836
:1072B0000CF1FF3004D2884502D9ACF10200294418
:1072C000A1EB08019BB2B1FBFEFC0EFB1C110CFBF9
:1072D00007F743EA01439F420ED9EB180CF1FF3147
:1072E00004D29F4202D9ACF102012B44DB1B41EADC
:1072F000004192E76046E3E76146F7E76046A3E7AF
:107300006346B7E7834206D916B9002108467BE7F2
:10731000C6E900E0F9E7B3FA83F78FB9834201D3F6
:10732000724508D8BEEB020460EB030301209C46C3
:107330001EB9002168E73846FAE7C6E9004CF8E7CD
:10734000C7F1200CBB4022FA0CF41C432EFA0CF1BE
:1073500020FA0CF3B84001434FEA14490EFA07F53E
:10736000B3FBF9F81FFA84FE09FB18300B0C08FB7D
:107370000EFA43EA00439A4502FA07F240D9E318AD
:1073800008F1FF3004D29A4502D9A8F10200234443
:10739000A3EB0A0389B2B3FBF9F809FB183308FB26
:1073A0000EFE41EA03418E452CD9611808F1FF33E6
:1073B00004D28E4502D9A8F10203214443EA0040D9
:1073C000A0FB0298A1EB0E014145CE46434602D3F5
:1073D00006D14D4504D2B9EB020E68EB0403013827
:1073E000002EA6D0B5EB0E0261EB030101FA0CFCF6
:1073F00022FA07F34CEA0303F940C6E9003198E7A3
:107400004046C5E74346D9E738B51B4C9DF810E028
:1074100094F84CC01CF0010524D163F3420C4001E8
:1074200094F83830A4F840104FEACE0E0EF0180E43
:1074300000F0200040EA0E0023F0380303430F4819
:1074400084F838309121A2FB000384F84CC001FB82
:10745000023107A3D3E90023FFF752FE6064A06462
:10746000284638BD0C25284638BD00BFAFF3008044
:107470008D49FD1A07000000680D0020002AE784EE
:1074800010B504469DF8080022864FEA411CC00052
:1074900094F8281000F018000CF0200C4CEA000CB6
:1074A0000B4821F038014CEA010CA3FB00029121AA
:1074B00084F828C001FB032103A3D3E90023FFF7CD
:1074C0001FFE606310BD00BF8D49FD1A070000005C
:1074D000002AE784000000002DE9F043044600F193
:1074E0003A0190F84C0094F838304D4DC0F340000C
:1074F00060F386138DB084F8383008F055FE94F8A8
:107500003820B4F840304748246102F0790200275F
:1075100084F838209121A3FB0002C4E90277277088
:1075200001FB03213CA3D3E90023FFF7E9FDA26C93
:107530003D4B651BA3FB053502F1090398428EBF45
:1075400019463A46014662646160064608F0DEFD6F
:107550006369C5F3871500F10907002B41D00DF1D0
:107560002C08CDF820800694B4F840302D484FF018
:107570000009A3FB0002CDF80C90912101FB03212F
:1075800063680493294B0793294B059302230B93BC
:1075900021A3D3E90023FFF7B3FD104619464FF4AA
:1075A0007A720023FFF7ACFD0235EDB2CDE9016040
:1075B00003213B462A46CDF80090484608F054FC8B
:1075C000414609F0B5FA40B994F84C3043F0010354
:1075D00084F84C300DB0BDE8F0830C200DB0BDE850
:1075E000F0830DF12C08CDE90A33616843460AAAFD
:1075F000032000F075FD0028B3D10B990D4806A3B8
:10760000D3E90023A1FB0001FFF77AFD0A9B20F0DC
:107610007F471F44A5E700BF8D49FD1A0700000002
:10762000680D0020002AE784CDCCCCCC11020300E9
:10763000D124030000CA9A3B2DE9F0418468A28C52
:107640004FF6FF739A428AB000F0CE80054620467E
:107650000CF0F4FFAB7C012B00F01D81022B00F03D
:107660000F81002B00F0EF8094F81C81B8F1000F1F
:1076700040F00A81A68DEB89E78D0136B6B2002B6A
:1076800040F0B5802B7C03F00303012B00F0D68083
:10769000B4F84831002B00F0B180B34240F23081A1
:1076A0009B1BA4F84831B4F84C31002B00F0C98082
:1076B000B34240F223819B1B9BB2062BA4F84C31B2
:1076C0004FF000028CBF00230123E285984694F816
:1076D0003A2063F3820284F83A2031460DF1270202
:1076E00020460CF083FD743000F00281B4F846317E
:1076F0002BB1B34240F2E8809B1BA4F84631B4F8AA
:1077000042312BB1B34240F2D8809B1BA4F84231E6
:1077100094F89930E58D03F00101B8F1000F0AD11A
:10772000AF4200F0C6800135ADB241B9002D5BD04B
:107730004146404642E00135ADB200293DD094F8C3
:10774000993094F937206FF30003002A84F89930B8
:10775000C0F2A78094F83B00C0F3C00100F007001E
:107760000FF030FE94F83B2094F83C1002F0030335
:107770000933C2F34002DB00D34001F003020932B7
:10778000C1F34001D200CA40E18B01F23F110B442A
:10779000134403446A4A6B480721E3FB0021104667
:1077A00065A3D3E90023FFF7ABFC616820F07F40BD
:1077B000814280F09880411A60600020A28C246988
:1077C00003950023604DCDF810800332CDE9011000
:1077D00006940093D2B201211846059508F060FB8B
:1077E00010F0FD0F40F08E800AB0BDE8F081A4F8E3
:1077F00048812B7C03F00303012B1FD0B4F84C31DC
:10780000002B7FF455AFE28C052A97BF013240F27E
:10781000E2434FF4FA7392B203FB02F2B4F84A3136
:1078200042F2107101FB0323013BB3FBF2F39BB265
:10783000A4F84C31002B7FF43BAF02E00023A4F806
:107840004C31002343E794F8563003F01803182B0B
:107850007FF40AAF218DB4F844218B1D9A42C4BF36
:10786000931F5B1AB4F84011CCBF9BB213469942E8
:1078700053D0A4F84031A4F84231A4F84621F3E6ED
:107880004FF03D0884F81C81414620460AB0BDE80F
:10789000F0410BF001BB0023A4F84631A4F84231BB
:1078A000E2E694F83C00012100F007000FF08CFDA7
:1078B00058E7002998D0454641E70023A4F8423113
:1078C00020460CF007FD23E709F002F9014600B35A
:1078D0000023A4F84631A38CC3801B2303710068E6
:1078E00009F0C8F80BE76060081A1CD0002165E7B2
:1078F0009DF8271020460BF0CFFA75E70821C4E762
:107900003E21C2E709F026F984423FF46DAF00DE64
:107910006AE70123A4F84631F1E6B4F846110029DC
:107920007FF4A2AEA7E7002DE0D1B8F1000FDDD1C2
:107930005AE700BFAFF300808D49FD1A0700000031
:107940008C49FD1A00CA9A3BD927030000000000A9
:107950002DE9F04F8FB0B0F818610D930446B0F8E0
:10796000DC3090F83B000B911E44C0F3C001BDF821
:107970006830BDF86C70BDF86080BDF86490D4F8D4
:10798000D4A00C9300F007000FF01CFDE58CB6B2FC
:10799000A6EB070B052D1FFA8BFB40F2ED8015FBC4
:1079A0000BF5B8F1050FADB240F2E24B40F2EE80BC
:1079B00094F83C2094F83B1002F003032833C2F300
:1079C0004002DB00D34001F003022832B3F5A47F6C
:1079D000C1F340014FEAC20222FA01F238BF4FF46C
:1079E000A473B2F5A47F2CBF9B1803F5A47303F214
:1079F000D51318447C4A7D4B0721E0FB0231184621
:107A00004FF09613E3619623238475A3D3E90023F3
:107A1000FFF776FB434620F07F4040F2E2420BFB4B
:107A200005F102FB03FB4A1E5A44B2FBFBF293B280
:107A30000BFB03F39942606095B280F0B3806A4813
:107A4000591AA1FB000166A3D3E90023FFF758FBF5
:107A500020F07F408244B4F8DC20B4F81831BF1B1A
:107A60003D44ADB213442B44A4F81831638D1A443D
:107A700094F837301544DB09658540F0A1800D9BF3
:107A80005948A3FB000156A3D3E90023FFF738FBB5
:107A900020F07F4501350C9BA4F84A315946204619
:107AA000A4F82680A4F828900CF0CCFB504B218D34
:107AB0005B44881DB3FBFBF39AB29042A4F84421C7
:107AC00004D2C1F57F41FA310A4492B20B9BA4F86B
:107AD000402113B10023A4F84C310221012011F000
:107AE0000FF9002202210646012007F04FF8414914
:107AF0004FF4AC72204606F0D9FFC21C3E4B0093F7
:107B0000D7B2019453463A460121002008F05CFAAE
:107B100010F0FD0F5FD1344831A3D3E900238BFB74
:107B20000001FFF7EDFA0894069419466368049380
:107B3000324B0793324B05934FF6FE738046039307
:107B4000104600234FF47A72FFF7DAFA0095CDE978
:107B5000018053463A460121002008F085F910F0D3
:107B6000FD0F36D17EBB94F81A3143F0010384F83F
:107B70001A310FB0BDE8F08F013515FB0BF5B8F1E8
:107B8000050FADB24FF4FA7B3FF612AF4FF09612ED
:107B900008F10103E261962222849BB20A204FF48D
:107BA000FA723CE71048C91AA1FB00010CA3D3E903
:107BB0000023FFF7A5FA20F07F40AAEB000A4AE76E
:107BC00000DE002567E701220221104606F0DEFFF5
:107BD000C9E700DEC6E700DE9DE700BFAFF3008027
:107BE0008D49FD1A0700000000CA9A3B8C49FD1A16
:107BF0007FC3C901B80D0020992703008127030026
:107C000099690300000000002DE9F04F89B0CDE92B
:107C1000020100209DF84C80BDF850A0BDF854B082
:107C2000BDF8589004921F460AF018FD002800F095
:107C3000228108F001050446284608F0A5FA002D27
:107C40004AD1636904F110020592002B4BD066699A
:107C5000356896F82B00C0F3C00100F007000FF064
:107C6000B1FBF28900F2CF3313449D489D4A0721AE
:107C7000E3FB0021104698A3D3E90023FFF740FA65
:107C800020F07F40686094F84C1068F3420184F85B
:107C90004C1094F8391067F30001DDE9022384F8F1
:107CA000391012990968A16112998988A1830499F0
:107CB000A4F8249004F1100000910021FFF7E0FBEC
:107CC000A0640FF0FBFC002840F0D9802046FFF7AD
:107CD00003FC09B0BDE8F08F062106F0FBFE00288A
:107CE000AFD11220F5E708F0ADFE0590002800F0B6
:107CF000E3800AF0E3FD0546002800F0DA80143046
:107D000007F0A4F805F11006002840F0DB800321FD
:107D100005F118000FF07CFA286DA5F828B04FF691
:107D2000FF72A5F826A0AA84002800F0C78005F1FC
:107D3000440205F1400106F0D9FE95F83B2022F0FF
:107D40007F0242F0190285F83B2095F8562022F078
:107D5000070285F8562095F83C2001214FF0000BD2
:107D600061F3020285F83C20C5F850B0A5F854B084
:107D7000A5F82AB0C5F82EB005F132000EF036FF96
:107D800095F8372060F30502012185F837200DF1C1
:107D90001F000FF03DFA9DF81F10534A85F839B0C7
:107DA000A2FB0102D20802EB4202A1EB820195F88C
:107DB0003720A5F818B102F03F0285F8372095F872
:107DC0003A20A5F84CB1053122F0070240F2E2401A
:107DD00085F8381085F83A20298D444AA5F84A914B
:107DE00000FB0AFA06205244A5F8480101F1060CEE
:107DF000B2FBFAF290B26045A5F846B1A5F842B1DF
:107E0000A5F8440102DD0638401A80B2A5F8400109
:107E100028460CF0AFF9514628460CF013FA4FF003
:107E2000000A059BC5F8203185F81CA10AF074FFF3
:107E300095F8542160F3020285F854210AF072FF8C
:107E400095F8542160F3C50285F8542195F81A215C
:107E50006AF3410285F81A2105F19C000BF0C4FF7A
:107E60004FF09612C5E907226661C5E902AA85F8B6
:107E700000A02D61EDE60C2009B0BDE8F08F65692A
:107E80002B6C2BBB05F1340105F1300006F032FEFE
:107E9000E0B12E682864D6F82001A8B108F0D8FD1A
:107EA00030460AF011FD00230320636109B0BDE8EC
:107EB000F08F059808F0CCFD07200AE705F148008F
:107EC000286534E700DE22E700DEE7E700DEE0E7D2
:107ED00000DED7E7AFF300808D49FD1A07000000F0
:107EE00000CA9A3B8C49FD1AABAAAAAA7FC3C90152
:107EF0002DE9F04F0446037F406A8DB01546C3F369
:107F0000401AC3F3C012238DADF82C30E3070F469F
:107F10000A9000F1CE80BDF82C300A98A2774FF07D
:107F20000008A4F81C80A4F82330C4F81F003B68A4
:107F30001E68EB8AE3842B8B2385B38C63850FF05B
:107F400011FC84F82C00D5F8009048460AF0C2FCD9
:107F50004146A882E08048460CF088F9D7F80480B2
:107F60002068214608F07AFDAB8AA8F806301C2369
:107F7000D8F8004088F80430BAF1000F40F08D8046
:107F8000534688F81C304146204608F073FD95F8AA
:107F90002B00B5F81680FC6840F2E243C0F3C00144
:107FA00000F0070003FB08F80FF00CFA0022022192
:107FB000241A012006F0EAFD30460AF027FB424B66
:107FC000A4FB034B05463EA3D3E9002320465946B4
:107FD000FFF796F80196BB683C49009120F07F4678
:107FE000AA1C363BD2B233440121002007F0ECFF3B
:107FF00010F0FD0F5FD14FF0000A012211465346E9
:10800000CDF800A0504607F09DFF48460AF062FCFC
:1080100005462D482AA3D3E90023A8FB0001FFF75A
:108020006FF819462A4BBF6808932A4B069340F213
:108030007233CDF81C900993D9F804308046CDE90D
:1080400004A3104600234FF47A72FFF759F8224B2D
:108050000722A6FB0331CDE9028002FB0611E01ADC
:108060006BEB01014FF47A720023FFF749F80335F7
:10807000363FEDB2CDE900603B462A46012150462D
:1080800007F09EFE10F0FD0F17D1012202211046CD
:108090000DB0BDE8F04F06F079BD95F8273043F0FC
:1080A000400385F82730281D0EF0F6FD01232885B2
:1080B00067E700DE2FE700DE9DE700DEE5E700BFB3
:1080C0008D49FD1A0700000000CA9A3B8D69030024
:1080D00091690300996903008D49FD1A00000000B1
:1080E0002DE9F04F8FB0FF2709930B1D0893002354
:1080F000CDE90533DFF878A18DF82F7005461646D7
:108100000C9398463C460DF134090DF1300B0223D7
:108110000D93CDE901A9CDF800B033460DF12F0242
:108120002946002007F094FF022813D00D9BBBB90D
:10813000FF2C18D03368434515D0002F00F08680FF
:10814000013FFF24FFB28DF82F40E0E729460020D1
:1081500007F0C4FF0D9B022BF8D00D9B002BE7D03E
:1081600000DEFF2CE6D19DF82F30FF2B48D0032BEB
:10817000CDD100200AF0B6FB0028C8D090F93730E6
:10818000002B24DA436807939DF82F30032B14D07B
:10819000FF2CDDF8308008D00599404607F0B8FF85
:1081A000089B069A134498422CD8079B9DF82F40B1
:1081B000CDE90583D6F80080A9E700200AF092FBFC
:1081C0000028E5D090F93730002BE1DA9FE790F8EE
:1081D0003B00C0F3C00100F007000FF0F3F8254AA0
:1081E000254B00F265400721E0FB023118461CA335
:1081F000D3E90023FEF784FF20F07F430793C3E712
:10820000FF2C27D0069A1D480721A2FB000301FB83
:10821000023115A3D3E90023FEF772FF0446B8B973
:10822000059B1648013BA3FB0002072101FB03212C
:108230000DA3D3E90023FEF763FF099A00F11E03A3
:108240002344002013600FB0BDE8F08F00DE77E715
:108250003E34E5E76FF009000FB0BDE8F08F00BFD6
:108260008D49FD1A0700000000CA9A3B000000007B
:108270009D6B030000CA9A3B8C49FD1A8D49FD1A7B
:108280002DE9F043C668476873683D491A68D0F81D
:108290000090A7F57423A3F510738B4283B080463A
:1082A00007D907F1E87707F5D43709F1FF3907F562
:1082B000A57773685168DD8ACDF8049006F1100344
:1082C00001AA0220FFF70CFF00284ED10199A1EB73
:1082D00009031B0237D40846494607F019FF034635
:1082E00028480721A3FB000201FB032122A3D3E9B5
:1082F0000023FEF705FF34690444002C346109DBD8
:1083000040F2E24305FB03F3A3422FD2E41AA34257
:10831000FCD33461D8F800301A48A3EB0903A3FB5F
:108320000002072101FB032113A3D3E90023FEF779
:10833000E7FE154BA3FB0737A0EB974020443061C5
:1083400003B0BDE8F083484607F0E2FE03460D485F
:108350000721A3FB000201FB032107A3D3E90023AC
:10836000FEF7CEFE3469241AC7E73469002CD1D158
:1083700003B0BDE8F08300BF00CA9A3B00000000D4
:10838000BFBDF07F8D49FD1A83DE1B430000000056
:108390002DE9F041C46894F92830002B8CB0C0F26C
:1083A000A880636805460E46002B40F0978094F83D
:1083B00028306FF3000384F8283010F0A1F8002073
:1083C00010F0C2F80021084610F0B0F80820002292
:1083D000252110F0EDF8012008F05CFC002800F0E9
:1083E0008F801C3010F00EF95F4B0B930BA810F030
:1083F000CBF85E4940F25B6010F07AF994F82800FF
:10840000C0F3410025300EF0A9FF5948214610F075
:108410004BF894F828309B0602D46368002B5AD09E
:10842000962010F093FA00231A461946184610F0C9
:10843000C5F9D4F800802F6840460EF07BFF074452
:108440006A6807F10901002010F08CFA10F060FB57
:1084500010F024FA20460AF0E5F8811CC9B2404623
:108460003A460EF069FF804600284FD10EB9636B83
:10847000D3B963687BB12A683E4BA2616A68E26146
:1084800004F118019960646201220221002006F0C3
:10849000B1FB002838D120460EF01AFF002831D158
:1084A00000200CB0BDE8F081334A0792334A0592B0
:1084B00040F2F31200930892CDE90366CDE901661C
:1084C00006943B463146012207F0CEFC10F0FD0F2A
:1084D000CFD000DECDE710F0D1F9AAE7636893F8BA
:1084E0002A30D90705D4636893F82A309A077FF5B4
:1084F0005EAF234821460FF0D7FF10F0A5F8CFE775
:1085000000DE6EE700DECBE700DEC4E71D4A1E4951
:108510001E4840F2E51315F032FE1D4B0721A8FB63
:10852000030301FB08310EA3D3E90023FEF7E8FDA6
:1085300018490246184815F022FE002585F31188D7
:10854000BFF36F8F0323184602DF144821460FF054
:10855000ABFF10F079F86FF08B00A2E7AFF300806B
:1085600000CA9A3B00000000D6BE898E55555500C2
:10857000418602001C050020697703007177030023
:1085800079740300D03D04001C3E0400A43C0400A8
:108590008D49FD1A4C3E0400203E0400FD77030087
:1085A00038B504460FF0F8F894F8283094F82820ED
:1085B000C3F34103013303F00303032B08BF00237C
:1085C00063F3420214BF03F12500252084F828201C
:1085D0000EF0C4FE63680BB123694BB907F096FD3A
:1085E000C11C002010F032FABDE8384010F090BAFB
:1085F00010F05AFA054607F089FDC11C002010F062
:1086000025FA10F085FA10F04FFA294607F080FDA0
:10861000094A03460721A0FB020201FB032104A330
:10862000D3E90023FEF76CFD23691B1A236138BDD3
:1086300000CA9A3B000000008D49FD1A00000000AE
:108640002DE9F0478AB0044610F03EF8C0B250B9A8
:108650000EF0CEFEB24821460FF026FF0AB0BDE86C
:10866000F0470FF0F1BF10F04FF8054610F04EF94B
:10867000064610F055F910F02BF9EDB2074610F050
:108680000BF90EF0B5FE002DE4D0012008F002FB3E
:108690000546002800F03E8194F8288018F0080F65
:1086A000C8F3C10AC8F3C00140F0C4802E7F6268DD
:1086B000FFB206F00F03002A00F0C180626892F852
:1086C0002A20920700F1BB80072BC3D0A1B994F8F0
:1086D0002920C6F3801102F00102914240F0AF80E0
:1086E000062205F11E0104F1080007931AF00FFE9F
:1086F000079B002840F0A380002B40F017816B7F80
:10870000063B1F2BA6D8042008F0C4FA0028A1D0ED
:1087100010F006FA636B064643B9238E40F27122CD
:1087200002FB03F3B0FBF3F203FB120622687D4B5E
:1087300052680721A2FB030301FB023176A3D3E9B0
:108740000023FEF7DDFC6FF44273C3181F3B4FF0AC
:10875000000747F1FF32B34272F10002FFF47AAF33
:1087600010F08CF894F8286063680FF0DBFF05F1D7
:108770001E03019309AB0493C6F3801604F12A0388
:10878000029603932B7FC3F38013014606463A46B5
:108790000093204601230FF02FF930460FF038FFE9
:1087A0000FF088FF002840F082815F4821460FF0DB
:1087B0007BFE626892F82A3043F0010382F82A3087
:1087C00094F8283043F0800384F8283008F07CFACD
:1087D000172303714FF6FF73C38095F81CE007461B
:1087E0003346CEF3401E00F11C0206F1200C1D683A
:1087F00058689968DE68D66010336345156050602C
:10880000916002F11002F2D11B6813603B7FBC60E3
:108810006EF345133B7710F047F9099BC7E9040352
:1088200008F052FAF860386839460AB0BDE8F047F7
:1088300008F074BAF6B2002E3FF40CAF36E7002B06
:1088400061D16A7F052A7FF605AF252A3FF602AF80
:1088500008F02101202940F0B1806268002A00F070
:10886000B580062B3FF6F6AE4FF0450929FA03F91D
:1088700019F0010940F0A180012B00F08880042B41
:108880007FF4E8AE6B7F063B1F2B3FF6E3AE18F09C
:10889000010F3FF4DFAE0FF045FF2E7F0278C6F3E5
:1088A0008013B3EBD21F7FF4D5AE0830062205F15A
:1088B0001E011AF02CFD00287FF4CCAE6B7F002B3C
:1088C0003FF4C8AE636823B106F00F06072E7FF4AD
:1088D000C1AE032008F0DEF9054600283FF4BAAE29
:1088E00008F0F2F94FF6FF73EB8005232B716FB997
:1088F0007F206B7E287669F3000328686B76294613
:1089000008F00CFAA6E6062B9BD0AAE70FF0D0FFE2
:10891000C0B2EEE700DEBFE600CA9A3B00000000EE
:10892000157803008D49FD1A0D790300012BEAD15A
:108930006A7F0C2A7FF48EAEC8F38013B3EBD61F88
:108940004FEAD61900F09D80BAF1010F40F2A480E1
:10895000B9F1000F06D095F8293003F0C003402B81
:108960003FF4D1AEC8F38018B8EBD61F4FEAD61942
:1089700018D0B9F1000F3FF46DAE95F8293003F02F
:10898000C003402B7FF466AE4FF001099AE76A7F7F
:108990000C2A7FF45FAEC8F38018B8EBD61F4FEAFD
:1089A000D6190FD1062205F1240104F12A001AF08C
:1089B000AEFC38B94FF0000984E76A7F063A1F2AF7
:1089C000F8D947E6BAF1010FD3D843E696200792CB
:1089D0000FF0BCFF079A10460FF0A8FE032008F026
:1089E00059F9064600283FF435AE08F06DF94FF608
:1089F000FF73F38005233371002F54D17F23727EE0
:108A000033766FF3000272763146306808F086F9EB
:108A10000FF088FE0378032262F3030303702B7FB9
:108A20000278C3F3801363F3C7120C230270437000
:108A300094F82830D2B2C3F3801363F3861203464E
:108A400003F8022BD4F82A20C0F80220E28D9A8085
:108A5000D5F81E3083606B8C83810FF0D9FD0FF049
:108A600029FE30BB10F054F894F82830124843F037
:108A70000103214684F828300AB0BDE8F0470FF022
:108A800013BD062205F1240104F12A001AF03FFC6F
:108A900000283FF438AE57E7C8F38019B9EBD61F6A
:108AA0007FF4D8AD7EE70FF003FFC3B2A7E700DE87
:108AB0007BE600DED6E700BF297803000000000057
:108AC000F0B5C468A28A4FF6FF739A4285B000F0F1
:108AD000AE8005460FF06CF82B89628B208CA38347
:108AE0001A4492B2104494F82730E28380B2411CB9
:108AF00021845E064FF00001618304F1220167D4F6
:108B000003F03F000B4694F82810009004F1290070
:108B10000EF07AF80646204603A90FF081F9039B70
:108B200094F846101A7861F3C3021A70039A94F805
:108B300046301178C3F3400363F3820111700FF0E4
:108B4000DFFC00200FF000FD201D0FF01DFD23892C
:108B5000A17A40F25B6043EA01410FF0C9FD304663
:108B60000EF0FCFB039920460FF030F92146364801
:108B70000FF09AFCE0890FF0E9FE94F82C0000F069
:108B800007000FF0D3FD27682E6838460EF0D2FBA1
:108B9000064406F109016A6801200FF0E3FE0FF0B8
:108BA000B7FFA18A03313246C9B238460EF0C4FB82
:108BB0000646A8B1AB7A13F0020517D0002523486A
:108BC00021460FF071FC0FF03FFD284605B0F0BDC7
:108BD0000A4603F03F03218D0EF062F806469AE73D
:108BE00020460EF075FB48BB0025EEE7184A1949F0
:108BF00019484FF4807315F0C2FA18480721A6FBF4
:108C0000000301FB06310EA3D3E90023FEF778FA37
:108C100013490246134815F0B2FA85F31188BFF3E1
:108C20006F8F0323184602DF6FF08B05C7E70E48EE
:108C300021460FF039FC0FF007FDD5E700DED3E742
:108C400000CA9A3B00000000297D0300597403000C
:108C5000603E04001C3E0400A43C04008D49FD1A43
:108C6000B03E0400203E0400797403001FB50B4A97
:108C70001068516801AB03C390680949186001A8E6
:108C800003F0F0FB014628B1064815F06BFA05B079
:108C90005DF804FB044815F065FAF8E7D0380400E5
:108CA000698D02008A400400AD40040070B503786D
:108CB0008AB004460E4607AD032B20D8DFE803F048
:108CC00002191B1D11492846FEF73EFA05956378E7
:108CD0000493A3780393E378029323790193637950
:108CE0000093A3790A4A1E21304614F0D9FD0AB038
:108CF00070BD0849E7E70849E5E70849E3E7084A9E
:108D00000A21284614F0CCFDE0E700BFCC40040067
:108D1000F5400400D3400400DA400400E4400400BD
:108D2000EE40040030B50D4C2368834289B00D46F7
:108D300011D117F067FB6946FFF7B8FF084B0948E8
:108D40002A46694615F00EFA206803F01FFD00233D
:108D50002360FFF78BFF09B030BD00BF4012002039
:108D6000FF45040018410400F0B5184F3B688FB070
:108D700005460C463BBB012A25D806A9FFF796FFFE
:108D80002246134806A915F0EDF932341BDB03F037
:108D9000B9FBC0B90F4E06F10C030FCB02AC84E84F
:108DA0000F00F069316A6B4603C36A463B462146B1
:108DB000284604F0C9F8024628B1074806A915F06C
:108DC000D1F9FFF753FF0FB0F0BD00BF40120020F4
:108DD0003C410400D03804005841040070B588B00C
:108DE0000C46054617F00EFB6946FFF75FFF0E4E77
:108DF00074B10E4B0E482246694615F0B3F930683F
:108E000003F0C4FC00233360FFF730FF08B070BDEF
:108E10003468AC42FAD16946064815F0A3F913212B
:108E2000204617F06FFAF1E740120020FF450400DA
:108E3000774104009641040008B5002002F012FDBD
:108E4000014620B1054815F08DF9002008BD044801
:108E500015F088F9FFF70AFFF7E700BFA541040006
:108E6000C5410400014B1B68184700BF5002002099
:108E7000014B1860704700BF5002002030B585B02C
:108E800004460D461022002168461AF038FA0223E3
:108E90008DF802302A46044B01932146684614F0AF
:108EA00029FD05B030BD00BF658E020080B50546C6
:108EB0000E461746984614F0EBF903461AF0A2FA4C
:108EC000DFF81890044649F80030424630463946EB
:108ED000A84754F8090000F00BFC00BF0800000090
:108EE0002DE9F047058B04462807904611D4022946
:108EF00005F0070540F0CC80204615F068F978B100
:108F00000138218B042811D8DFE800F0C2106D85EC
:108F1000950001290CBF45F0100545F0200525837B
:108F200088F31188BFF36F8FBDE8F08701F0070A5F
:108F3000AA4500F0A5800027B9463E46A368002B4D
:108F400000F0BC8041F00801218388F31188BFF351
:108F50006F8FA168002900F0BA800D68002900F029
:108F6000B680D1F80480334652462046C047002DD3
:108F700076D02B6829461D46F0E701F007035A1FFB
:108F8000012A1BD8002221F00701062B276889B28D
:108F9000C4E9002209D13B4603E0628B01326283BF
:108FA0001B68002BF9D141F002012183204615F006
:108FB0000EF900287AD041F0200176E0042B0AD186
:108FC00021F0070189B22183204615F000F910B184
:108FD00041F020012183218B01F0070AAA454FD0DF
:108FE0000027B946AAE7236921F0070141F00601ED
:108FF000062DD3F8009021832DD1B9F1000F3FD079
:1090000041F00801218388F31188BFF36F8F3A493B
:109010002046C84729E021F00701236941F00401F7
:1090200089B2042DD3F804902183E6D000273E4670
:109030004FF0040A82E721F00701236941F005019E
:1090400089B2052DD3F808902183D6D000273E465B
:109050004FF0050A72E700273E464FF0060A6DE71B
:109060002B4687E7B9F1000FD1D1EFF31188202308
:1090700083F31288BFF36F8F238B23F008032383BE
:10908000258BEA062ED525F01003238305F007056E
:109090006669218B002EBFF670AF00232768C4E9F4
:1090A000003321F0070141F001012183218B01F000
:1090B000070AAA454FF000097FF440AF002F9CD06B
:1090C00041F00801218388F31188BFF36F8F002FCF
:1090D000C8D03D68394633465246204615F0A3F8BD
:1090E0002F46F4E7AB067FF51BAF25F02003238363
:1090F00005F0070500E700BF53E20300014B0360E2
:10910000002070471839040007B51B491B4815F0AB
:1091100028FC70BB1A49194815F023FC48BB1949B3
:10912000164815F01EFC20BB1749144815F019FC11
:10913000F8B90146154A114815F0DCFEC8B90246D7
:1091400013490E48012315F0B0FF90B90123009395
:10915000014602230948EF2215F023FB48B90748CE
:1091600015F048FB28B9054803B05DF804EB15F08D
:1091700071BB03B05DF804FBC80200205009002059
:10918000B00200209802002080020020540200203B
:10919000DC41040008B50348034A0021121A15F007
:1091A000CDF908BDE0090020F42900200748084A4D
:1091B000084908B5121A15F0C3F90748074A0849C3
:1091C000BDE80840121A15F0BBB900BF000000202E
:1091D000DC090020144904000000002000000020E9
:1091E0001449040038B505460C4699B1D1E901236C
:1091F0000F48096814F0B6FFD4E90423E1680D486C
:1092000014F0B0FFE1690C4814F0ACFFA1690B4801
:1092100014F0A8FF012D05D1EFF30581084810399E
:1092200014F0A0FF21462846BDE8384012F022BFC6
:109230002C4204005C4204008C4204009C42040066
:10924000CB42040030BFFFF7FDBF00BF2DE9F04166
:109250000B4EDFF8308006EB0807CC1B0546324684
:10926000094920461AF03DF8A01942460021083C61
:109270001AF045F8C5F8844007F10800BDE8F08110
:109280000000000008000000C8380400054B5A69BF
:109290009B689A421FBF044A536843F0805353604F
:1092A000704700BF6429002000ED00E02DE9F8437D
:1092B000324D804632488946174614F053FFAB6A58
:1092C000DE0622D52F4814F04DFF1124AB6A1D078E
:1092D00003D52D4814F046FF1224284DAB6A980799
:1092E00015D52A4814F03EFF6E6BAB6A190642D5BD
:1092F0002748314614F036FFB9F1000F03D0AB6AAE
:1093000023F08003AB62132403E01024DEE76FF048
:1093100015061A4DAB6ADA0703D51E4814F022FF72
:109320001424AB6A9B0603D51B4814F01BFF1524BD
:10933000124B9A6AD50602D49A6A90070AD55B68DE
:10934000190507D54146304600F0BAFA10B180F34E
:1093500009880224094B9A6A920642BF5A6A22F48B
:1093600000525A629A6A42F0FF029A6200233B70EE
:109370002046BDE8F8836FF01506C4E700ED00E075
:10938000DF420400F64204002A4304003E43040086
:10939000574304006E4304008E43040010B51D4C77
:1093A0001D4814F0DFFEA36A990130D51B4814F064
:1093B000D9FE1E20A36ADA0103D5194814F0D2FEA3
:1093C0001F20144CA36A1B0303D5164814F0CAFED1
:1093D0002120A36A590303D5134814F0C3FE2220A9
:1093E0000C4CA36A9A0303D5104814F0BBFE23204B
:1093F000A36ADB0303D50E4814F0B4FE2420054A0B
:10940000936A6FEA03436FEA1343936210BD1D2012
:10941000D0E700BF00ED00E0BE430400D7430400E6
:10942000EB43040006440400254404004B440400BC
:109430006644040070B5244C064624480D4614F0DA
:1094400091FEA36AD90435D5214814F08BFE17206C
:10945000A36A1A0503D51F4814F084FE18201A4C7D
:10946000A36A9B050FD51C4814F07CFEA16BA36A70
:10947000180407D5194814F075FE1EB1A36A23F429
:109480000043A3621920104CA36A590503D5144860
:1094900014F068FE1A20A36ADA050DD5114814F0FD
:1094A00061FE1B20084A936A43F47F4393620023C2
:1094B0002B7070BD1620CBE7A36A9B04F2D50A4837
:1094C00014F050FE1C20EDE700ED00E09244040093
:1094D000A94404002A430400BB440400D54404000A
:1094E000EB440400074504008E4304002DE9F041DD
:1094F0005B4B5F688AB00446C7F30806002585F316
:109500001188BFF36F8F02F07F43B3F17F4F06D115
:1095100002F00C03082B13D1524814F023FE00254F
:109520002C464FF00008F31E8DF80780092B00F23F
:109530008680DFE803F00A7A7E76848484848482DD
:1095400010074CBF0C460125EBE74748444E14F08A
:1095500009FE8DF80780F36A9A0704D5434814F092
:1095600001FE002330E0F36A002B01DA4048F6E701
:10957000F36A5B00F5D53F4814F0F4FD7369A26906
:1095800043F480737361BFF34F8FBFF36F8F7369C1
:1095900032F8022C23F480737361BFF34F8FBFF353
:1095A0006F8F4DF602739A4209D0B36ADBB253B3A0
:1095B0000DF1070201212046FFF778FE33E0216814
:1095C0002D4814F0CFFD23689DF80720C2B902AEE4
:1095D00004F1200720686168324603C20834BC42A7
:1095E0001646F7D1099AB5B3C2F3080121B96FEA5B
:1095F00052226FEA4222099202A91846FFF7F2FDB1
:109600000AB0BDE8F081B36A13F47F4F05D00DF1C5
:1096100007010120FFF70EFF05E0B36AB3F5803FB5
:109620009FD3FFF7BBFE0346CEE70DF107020021F3
:10963000C1E70DF107010020ECE710488FE7104B60
:109640001049114817F4F87FA6F1100218BF194607
:1096500014F088FD85E722F4FF7222F00102CAE7C8
:1096600000ED00E04E4504007A45040092450400F8
:10967000B4450400C3450400E3450400004604006B
:10968000354504002045040025460400044B5A6972
:1096900042F010025A615A6922F008025A6170477A
:1096A00000ED00E0EFF30880EFF3098101B57246A9
:1096B000FFF71CFF01BD00BF0B4880F3088811F0C5
:1096C00013FE202080F3118808484FF404614018ED
:1096D00080F30988EFF314800221084380F3148893
:1096E000BFF36F8F00F0B4F800490020403B00202A
:1096F000084B9B6883420BD1EFF3058343B1064BC4
:109700005A6842F080525A605A6A22F400425A6201
:1097100013F0C4BD6429002000ED00E015498A68FB
:109720004FF030001044EFF3098C80E8F01F202048
:1097300080F31288BFF36F8F0F4F4FF000664A69B6
:109740008A603E60D2F884000C4C2060D2F8880019
:109750000023C2F8883080F3118804B5104600F069
:1097600015F9BDE8044002F1300090E8F01F8CF3D9
:10977000098870476429002004ED00E044120020AD
:109780001EF0040F0CBFEFF30880EFF3098081692E
:1097900011F8021C0229FFD001B5724614F0D2FE66
:1097A00001BD00BF40B2002807DB044A4109012384
:1097B00000F01F00834042F82130704700E100E0D4
:1097C00040B200280CDB4309064900F01F0020339B
:1097D0000122824041F82320BFF34F8FBFF36F8FE8
:1097E000704700BF00E100E0054B420900F01F0098
:1097F00053F82220012303FA00F01040704700BF05
:1098000000E100E040B20028A8BF00F1604001F193
:109810000101B8BF064B4FEA4111ACBF00F56140F2
:1098200000F00F00C9B2B4BF195480F8001370479C
:1098300014ED00E0044B054A23F07F039360BFF36F
:109840004F8FBFF36F8F70470070020000ED00E094
:1098500008B5FFF7EFFF0B4AD2F8883023F4700306
:10986000C2F88830EFF3148323F0040383F31488E1
:10987000BFF36F8FFFF78EFCFFF798FC00F05CF8EA
:1098800012F0C0FC00ED00E042F8203C009B42F8E2
:109890001C3C0A49019B42F8183C029B42F8143CCC
:1098A00021F001014FF0807342F8043C42F8081C9B
:1098B0000023203A0265C0F888307047AD8E020060
:1098C000094A0346906870B113F1160F406F05D036
:1098D000A0F140029A4205D8834203D2814228BFB8
:1098E00000207047002070476429002008B5154605
:1098F0000C4A0D4B9060D0F884201A600E4600F0A0
:1099000045F82C4686F309880020044B98472046EA
:10991000002100220023024C2047000069E50300DB
:10992000AD8E02006429002044120020014B102259
:109930001A61704700ED00E0044800232021C2189E
:109940000133302B82F80013F9D1704700E100E0B9
:1099500008B5EFF30583064A103B02EBC30152F84A
:10996000330049688847BDE80840FFF78FBC00BF57
:10997000F0350400024B034A0348012100F076B899
:10998000000004200000002018390400426F054B3D
:10999000403A1A60044A4021C3E9011218460121E5
:1099A00000F06EB84812002000000B15084AC2F8FB
:1099B00098000B6823F01F03034343F01003C2F821
:1099C0009C308B6843F00103C2F8A030704700BFA1
:1099D00000ED00E02DE9F043DFF8608085B00E4631
:1099E0001F4604464FF00009B14523DA6068D8B13C
:1099F0003FB1411E08421BD11F2819D923681942C3
:109A000016D12368019314F0D2FDA3680343039396
:109A1000D8F89050C5F30725D0B2013DA84207D829
:109A200001A9FFF7C3FF421C09F101090C34DBE770
:109A30006FF01502104605B0BDE8F08300ED00E0C0
:109A4000044B0522C3F89420BFF34F8FBFF36F8FF1
:109A5000704700BF00ED00E0BFF35F8F024B0022B4
:109A6000C3F89420704700BF00ED00E010B5034C30
:109A700001232278FFF7AEFF207010BDB22900202D
:109A800008B50B4A00231278FFF7A4FF10F1160F58
:109A900007D0084A0021D2F89030C3F30723984238
:109AA00000DB08BDC2F89800C2F8A0100130F2E750
:109AB000B229002000ED00E02DE9F043534B544C57
:109AC000D3F890302568C3F307239D4285B000F298
:109AD0009A80FFF7C1FF00200C2685421AD14D4C19
:109AE0004D4F25706846FFF709FBDFF82081DFF84E
:109AF0002C9106460025AE4213D12378434900201D
:109B0000D1F89020C2F30722934276DBFFF798FF4B
:109B1000002042E0616806FB0011FFF747FF0130BB
:109B2000DBE7009800EB05114FEA051CCB683B40D2
:109B3000B3F5000F48D00AD8B3F5001F30D0B3F505
:109B4000800F36D0B3F5801F10D00135D3E7B3F1C5
:109B5000807F42D0B3F1007FF7D150F80C30886895
:109B60004A6814F024FD40F4802009E050F80C30DD
:109B700088684A6814F01BFD40F0885040F430209B
:109B8000CDE901230390D8F890302078C3F3072360
:109B9000013B98422AD96FF0150005B0BDE8F0836B
:109BA00050F80C3088684A6814F001FD40EA09005A
:109BB000E6E750F80C3088684A6814F0F8FC40F08A
:109BC000C06040F40030DBE750F80C3088684A6829
:109BD00014F0EDFC40F08270D2E750F80C30886849
:109BE0004A6814F0E4FC40F08870C9E701A9FFF767
:109BF000DDFE237801332370A7E7C1F89830C1F860
:109C0000A00001337CE74FF0FF30C6E700ED00E035
:109C100024390400B22900200000F0FF00000811E0
:109C200008B5024B1B689847002008BD541200205D
:109C3000034B044A1860937843F002039370704713
:109C400054120020E002002008B50649064821F021
:109C50000701C1F1005202F5802214F044FA0020FD
:109C600008BD00BFFF6600205812002070B5416992
:109C7000867A0B4D044659B1437ADB0706D42C2370
:109C800003FB06535B6A1B689B689847002363616C
:109C90002C20214606FB0050BDE8704018F0AABFFA
:109CA000F0070020024B2C2202FB0030704700BF5F
:109CB000F0070020827A064B2C2101FB02339A6ABE
:109CC0001B7F1B33801A23F00303B0FBF3F07047B4
:109CD000F007002038B5074B827A2C2404FB0233AE
:109CE0005B6AD3E901240C601568FFF7E3FF04FB0E
:109CF000005038BDF00700202DE9F04385B005463F
:109D00006846039190461C4619F0D1F9DDE90067D9
:109D1000EFF31189202383F31288BFF36F8F6B8BCE
:109D2000002B41D02A8B9A4225D9002200232846B5
:109D300012F0CAFC0446F0B189F31188BFF36F8FAB
:109D4000039B002B41D032463B46684619F0D4F9BC
:109D5000A27A264B2C2101FB023320465B6A1B684A
:109D600003A91D68DDE90023A847606170BB204698
:109D7000FFF77CFF24E0698B4B1E6B8389F311880E
:109D8000BFF36F8F2B7F2A8BAC6A1B3323F0030347
:109D9000521A02FB0344154B154AEB1A9B1053430E
:109DA000A3722B7FE372CBE789F31188BFF36F8F28
:109DB00023464246284612F087FC04460028BFD1BD
:109DC0000024204605B0BDE8F0836361012300252F
:109DD0002381039B6382E27A6560294604F11800BF
:109DE00019F08DFA63692582E360EAE7F007002045
:109DF000A38B2EBA70B50D4C2C2500B970BD037A1B
:109E00004668002BFAD0013BDBB20372002BF5D180
:109E1000C3604360837A05FB03431B6A13B1984711
:109E20003046EAE7FFF722FFFAE700BFF00700201D
:109E30000E4A0123C2F840354FF080424FF0805166
:109E4000C2F87835D1F83001082808D1D1F834119A
:109E5000052904D80648415C09B1C2F838364FF0EC
:109E600080430122C3F880250020704700E00140B4
:109E70004846040020B1034B800143F0010318471A
:109E8000704700BF103904002DE9F04190F82030F0
:109E900003F01F03012B04460F4600F120061BD0E0
:109EA000022B05D043BB90F8211015F0E7F803E032
:109EB000818CC9B215F0BFF80546E8B1304614F000
:109EC000D8FD024668688368A2B99B684BB13A46E0
:109ED0003146BDE8F0411847818CC9B215F092F8BF
:109EE000EAE76FF0850319F08DFA0F4A135000204E
:109EF000BDE8F081DB68E9E794F82110204614F012
:109F0000D7FC02460028ECD0304614F0B2FD40B930
:109F10001369002BE5D03A46314620469847034660
:109F2000E1E7D368F5E700BF0C0000002DE9F04F32
:109F30000B7E33F0800893B00446174600F12009E9
:109F400040F071844A7E02F0010097B117F10C0FC6
:109F50000FD088B917F1710F03D10846FFF74AFFF8
:109F600003E00846FFF746FFB846404613B0BDE899
:109F7000F08F002800F04084002B40F00E840B8A04
:109F8000072B0DD80846FFF735FF484614F071FD42
:109F90000346A069002B00F03684802100F03CBC11
:109FA000CA68136823625368C9F804304A68E58CAC
:109FB000002AE7D0484614F05CFD08BB537E15B17B
:109FC00013F0020F01E013F0040FDBD0002014F0B7
:109FD0005EFB05460028D8D019F014FA94F820202A
:109FE000B84E002312F0600F8351C2F341130BD01F
:109FF000032B40F0B38119F005FA6FF0850340E0C0
:10A00000002DBFD0537EDBE7484614F032FD94F8B4
:10A010002130002840F03981013B0A2BEBD801A107
:10A0200051F823F071A10200F79F0200F3A1020092
:10A03000F79F020051A00200F79F0200F79F020065
:10A04000F79F0200C3A00200F79F020025A10200B3
:10A05000A069618C03697F29D3F88030CBD8A28CAA
:10A06000002AC8D1E28C002AC5D194F82020D2065B
:10A07000C1D194F82C20022A05D119F0C3F94FF070
:10A08000FF33335013E01B0706D5C9B214F02AFD85
:10A09000804620B1284661E7012384F8353094F8E2
:10A0A0002C30012B0BD1638C4BB984F82C3019F078
:10A0B000A9F93358002B00F05683284663E70123A3
:10A0C000F3E7204614F068FB628CFF2A014692D821
:10A0D000E38C002B8FD194F82030D8068BD194F8E4
:10A0E0002C30002BC9D02AB1D2B2204614F0AFFEDA
:10A0F0000028C2D0618C94F834308B42D7D0C9B2DA
:10A10000204614F0ABFE80460028C3D1628C002AA2
:10A1100014BF0223012384F82C300521204615F0BA
:10A12000BBF9C4E794F8203003F01F03012B7FF440
:10A1300062AFE38C002B7FF45EAF628CFF2A3FF6A8
:10A140005AAFA18CFF293FF656AF94F82C30022B62
:10A1500093D1D2B2C9B2204615F092F810F1020F95
:10A16000804640F0008119F04DF946F800809EE7E6
:10A17000E38CA18C002B7FF43EAF94F82C30002BA5
:10A180003FF47BAF012B0FD100297FF476AF12F0A3
:10A190001F020CD1638C012B89D194F868306FF3C6
:10A1A000C30384F8683082E712F01F0217D0022A36
:10A1B0007FF47DAFB4F822A0BAF1000F7FF477AF3F
:10A1C0005FFA81F84146204615F04CF9034619F034
:10A1D00019F93350013306D14FF0FF385AE70029FF
:10A1E0007FF44BAFD6E752464146204614F047FC79
:10A1F0005DE7E38CA18C002B7FF4FDAE638C022B1A
:10A200005FFA81F813D194F8203003F01F0358EA65
:10A2100003037FF4F0AEA0690122090A14F03FFCA9
:10A2200000287FF4E8AE012384F835303FE794F846
:10A230002C0000283FF421AF01280DD100297FF424
:10A240001CAF12F01F020AD1012B7FF430AF94F83B
:10A25000683043F00803A4E712F01F0211D0022A6D
:10A260007FF425AF002B7FF422AF4146204615F046
:10A27000E4F8034619F0C6F833500133ACD001229C
:10A28000B2E700297FF4F9AEDEE70A2B3FF6B3AE62
:10A2900001A151F823F000BFC9A20200F79F0200FC
:10A2A000F79F0200F79F0200F79F0200F79F02004E
:10A2B00049A30200F79F0200FFA60200F79F0200D9
:10A2C0002DA702000C000000E38CA18C022B7FF470
:10A2D00092AE94F82C30002B3FF4CFAE012B10D16E
:10A2E00000297FF4CAAE12F01F020DD194F8683035
:10A2F0004FEA930808F00208C3F3001348EA030882
:10A3000006E012F01F0210D0022A12D04FF000080F
:10A3100005F10C0A504614F02EFAE38C98420ED246
:10A3200019F070F86FF00B03ABE600297FF4A5AECF
:10A33000DCE7C9B2204615F0A4F88046E8E74146BC
:10A34000504614F0D2F9B2E694F82020B4F822A0D6
:10A35000D2064FEA1A235FFA8AFA09D02946204624
:10A36000FFF792FD8046B8F1000F7FF493AE9EE6B2
:10A37000013B0E2B3FF63FAE01A252F823F000BF87
:10A38000BDA3020007A40200BFA40200F79F0200C1
:10A39000F79F0200B7A40200B7A40200F79F0200D3
:10A3A000F79F0200F79F0200F79F0200F79F02004D
:10A3B000F79F0200F79F020007A6020005F10C0AB2
:10A3C0005046B4F8268014F0D6F980450AD2B4F885
:10A3D0002680204614F0E0F948B101287FF40BAE46
:10A3E000216F05E0504614F0C6F98046F1E7E16EB2
:10A3F000002900F013810A78424528BF42465046A2
:10A4000014F062F953E6204614F0C6F90AF101028D
:10A4100001900146D2B2204614F0F3FC8246002897
:10A420003FF4E9AD05F10C08D0F804B0404614F053
:10A43000A2F99BF80020904203D2404614F09BF909
:10A4400002465946404614F03FF9DAF80CA0BAF13A
:10A45000000F09D1298AE38C99427FF628AEC91AE8
:10A46000404614F04CF922E6DAF8040083681B6BCE
:10A4700013B9DAF800A0EAE7019998470028F8D064
:10A48000A0F1040B5BF8043F002BF2D01B78002BEB
:10A49000EFD0404614F06FF9DBF800301A789042A4
:10A4A00003D2404614F067F982B2DBF80010404650
:10A4B00014F00AF9E6E7204614F06EF99BE55246DF
:10A4C0000321204614F033FA824600283FF493AD6E
:10A4D00014F0CAFAB4F826B0E0B9BAF81430ADF8FE
:10A4E0002830DAF8103005F10C081B88ADF82A3056
:10A4F000404614F040F9834508D2E08C9DF82820AE
:10A50000824228BF02460AA9404679E7404614F035
:10A5100032F9F3E700238DF814309AF81530DAF8A1
:10A5200008208DF81530C24B1340C24A934258D1CF
:10A53000102106A817F0C0FD0028FFF65CAD0AAA9E
:10A540001028DFF8F4E20DF1180C114628BF102096
:10A55000404502F1020233D8800002308DF8140029
:10A56000019105F10C0A504614F005F99DF814808C
:10A57000D84528BFD846404503D2504614F0FBF8D2
:10A580008046B8F1020FC34628BF4FF0020B5A466F
:10A5900005A9504614F098F8A8EB0B08DDF804B0B4
:10A5A0004FEA58030BEB58025A4522D118F0010F1D
:10A5B0003FF47DAD019AD15C504614F08EF876E5FB
:10A5C0001CF8013B4FEA131A03F00F031EF80AA010
:10A5D0001EF8033002F802AC02F8013C08F1010851
:10A5E000B6E79AF814308DF81430DAF81030019389
:10A5F000B7E71BF8011B5046CDE9023214F075F89D
:10A60000DDE90232D0E7204614F0C6F820B1012877
:10A610007FF4F1AC236F00E0E36E13B96FF015081F
:10A6200038E55B88B3F5007F7FF6E5AC834B0A9392
:10A6300000238DF82C30A36C04F1480A9A455BD1B5
:10A6400005F10C0B584614F096F8BDF82A80E38CFF
:10A65000984528BF9846404503D2584614F08BF8D9
:10A6600080469DF82820424528BF42460AA9584600
:10A6700014F02AF8B8F1050F94BFA8EB0808A8F168
:10A680000508B8F1000F3FF412ADA36C53453FF439
:10A690000EAD002B3FF40BAD5A7D0F2A14D11A7D5D
:10A6A00019690193424528BF4246584614F00CF8F8
:10A6B000019B1A7D424594BFA8EB0208A8EB08084D
:10A6C000B8F1000F3FF4F3ACE26C9A423FF4EFAC08
:10A6D0001B68DEE75A7D0F2A0AD11A7DBDF82A10C1
:10A6E0000A44ADF82A209DF82C2001328DF82C2048
:10A6F000E26C9342A4D01B68002BEBD1A0E794F846
:10A700002C3094F834A0002B3FF4B7ACE38C012B31
:10A710007FF471AC05F10C08404614F02CF8E38C82
:10A720009842FFF4FDAD5146404646E794F820308C
:10A7300003F01F03012B7FF4A0AC204614F075FB3F
:10A7400000283FF49AACA38C4268FF2B3FF653AC31
:10A7500012799A42FFF44FAC0F2B3FF64CAC2344D6
:10A7600093F836A0D2E70123A362484614F081F99A
:10A7700060B9E38C53B12946002013F088FF0546E9
:10A7800000283FF402AC6B7E5E07F4D529462046D4
:10A7900013B0BDE8F04F14F0F0BD50077FF5F5ABF6
:10A7A000802B7FF4F2AB0846FFF724FBA36A012B52
:10A7B0007FF4DBAB94F83530002B3FF4D6AB94F844
:10A7C0002130052B05D1618CA069C9B214F08AF93A
:10A7D000804694F82130032B09D1638C022B06D1DB
:10A7E000A18CA0690022090A14F059F980460023BF
:10A7F00084F83530FFF7B9BB52077FF5C6AB002BA5
:10A800003FF4ABABCCE7E38C002B3FF4C6AB17F1C6
:10A810000C0118BF0121C90117F0D9F800238046A7
:10A82000A362FFF7A2BB6FF00408FFF79EBB00BF57
:10A8300000FF0200000302004E460400050F050061
:10A8400002480022002318F0EBB800BF6C0700207C
:10A850002DE9FF41514F4FF0FF334FF0FF3201A977
:10A86000384611F005FE039B1B69D3F89C409DF808
:10A870000430072BEFD8DFE803F00A041A0D2C2769
:10A880007B8D00220121204614F006FEE3E7002222
:10A890001146F8E794F8683043F0040301A984F8FE
:10A8A0006830204614F040F900220321EBE794F8C9
:10A8B00068306FF3820301A984F86830204614F0F1
:10A8C00033F900220221DEE701A9204614F02CF919
:10A8D000C1E794F86830A6696FF3820384F86830A2
:10A8E0003369D6F80880BFF35B8FD3F8A030BFF38D
:10A8F0005B8F9907C3F3400208D40421204614F06B
:10A90000CBFD4FF0FF352A460721BCE7D8F83C3095
:10A9100030469847D8F82430002130469847D8F878
:10A920004030054630469847E5B92946204614F0A0
:10A9300095FA0546B0B98021204614F07BFDA06948
:10A9400017F0FAF8831E5842584194F8683084F89A
:10A950002C5023F0680343EA401384F868302A46F9
:10A96000042190E700220421204614F095FDCAE757
:10A9700002990B7ED1F81E2013F07F0F204606D1DE
:10A98000FFF7D4FA054600283FF465AFBBE714F0A3
:10A9900049FBF7E7029A062175E700BF6C07002024
:10A9A00030B589B000220023CDE9062300246FF0E2
:10A9B0000703CDE90334CDE901441A4B1A49009449
:10A9C0004FF48062194812F09FF91949174818F09E
:10A9D00025FA184B18498B4207D3184B1849002009
:10A9E0008B4210D3002009B030BD03F11402BFF335
:10A9F0005B8F52E8000F42E80045002DF9D1BFF30C
:10AA00005B8F1833E7E703F11402BFF35B8F52E863
:10AA1000004F42E80005002DF9D1BFF35B8F1833DA
:10AA2000DEE700BF51A80200002A0020E009002054
:10AA30005F460400C4090020DC090020DC09002076
:10AA4000DC09002038B5024609490546806917F03F
:10AA5000DAF8044648B985F83400284614F0D5F8E9
:10AA6000044610B1A86917F001F9204638BD00BFAF
:10AA700041A8020070B5084C084E0546B44202D306
:10AA80000024204670BD636828461968FCF752FB15
:10AA90000028F6D01834F1E7C4090020DC090020B2
:10AAA00070B50646EFF31181202282F31288BFF3BE
:10AAB0006F8F1D4C236881F31188BFF36F8F5B6824
:10AAC00093F86830DB0705D4BDE8704021220023ED
:10AAD00012F0C4B8EFF3118382F31288BFF36F8FC3
:10AAE000256865B983F31188BFF36F8F2368D3B1ED
:10AAF00030460022BDE87040002312F07BB8616848
:10AB00002A6822608D4208BF626083F31188BFF318
:10AB10006F8F686805F10801C369984703482946A3
:10AB200017F02EFFE2E770BD641200203C07002002
:10AB300030B585B06C4684E806000546002215480D
:10AB4000002303A911F0F6FB0246E8B9039B94E841
:10AB500003005D60083383E80300EFF311802023D6
:10AB600083F31288BFF36F8F039B1A600A4A516800
:10AB700061B9C2E9003380F31188BFF36F8F0748D2
:10AB80000022002312F036F805B030BD0B60536090
:10AB9000F1E700BF3C070020641200200000002005
:10ABA00038B54B78046945682069202B08D0222BE2
:10ABB00019D018F027FC114B6FF085021A5010E0E5
:10ABC000CB88072BF5D1D3681A6842609A88028136
:10ABD0009B79837214F081FC22460821284614F0E8
:10ABE00069FC002038BD4B888381C3F3400203F029
:10ABF00001030276437622460921EFE70C000000AC
:10AC000008B51346026910694A78212A13D133B96D
:10AC100018F0F8FB0B4B6FF00B021A5009E0CA88D2
:10AC2000072A00F1040128BF072203F10C0013F0EA
:10AC30004BFD002008BD18F0E5FB024B6FF08502CC
:10AC4000EBE700BF0C00000073B504698DF8071036
:10AC50002025EFF3118685F31288BFF36F8F012251
:10AC6000E06B0DF1070113F026FC86F31188BFF3AA
:10AC70006F8F012812D018F0CBF808B9A37EABB9BA
:10AC80000D4BBFF35B8F012253E8001F002903D156
:10AC900043E800200028F7D1BFF35B8F2122002377
:10ACA00004F1480011F0A6FF02B070BD0021212080
:10ACB00018F054F9CDE700BF6C12002038B50569D3
:10ACC0000E49EB6B0024C3E90144DC606B6B05F1BA
:10ACD0004800C3E90144DC6018F079F805F1780018
:10ACE000074918F018F8074905F1240018F013F87F
:10ACF000284614F0F2FB204638BD00BFAFF6030033
:10AD000057F80300E3F803000378012B30B513D0A4
:10AD1000022B27D07BB9194B0A4603F1100453F8D4
:10AD2000045B42F8045BA342F9D11B78137043889B
:10AD30004B731B0A8B7330BD104B0A4603F1100492
:10AD400053F8045B42F8045BA342F9D11B781370FB
:10AD500043684B73C3F307221B0CCB731B0A8A7324
:10AD60000B74E8E700F1100350F8042B41F8042BB2
:10AD70009842F9D103780B70DDE700BF8A460400E2
:10AD800008B514F0F3FE12F08FF9044B1B680BB1F9
:10AD90000A209847BDE8084012F09AB970120020C6
:10ADA00038B50446084813F01DFC054648B1631E3B
:10ADB000DBB21F2B96BF054A0021D15C0C3013F08B
:10ADC0008CFC284638BD00BFCC0800209B46040000
:10ADD0000F2810B50CD80D280CD90A4813F002FC26
:10ADE000044618B104210C3013F077FC204610BD46
:10ADF0001328F2D009B10448F0E7BDE81040022062
:10AE0000FFF7CEBFF80800204808002070B5C668DC
:10AE10003378B6F8014083B90F21204601F0B6FD22
:10AE2000F378054650B90A4A118831B96FEA0450DF
:10AE30006FEA10501080074A137070BD43720121F1
:10AE400001F0EAFC2846BDE8704001F09FBC00BF5D
:10AE500098290020B329002010B5012104460C30A8
:10AE600013F06DFC2146034A0078BDE81040002332
:10AE700014F090BF383A040010B5012104460C309C
:10AE800013F05DFC2146034A0078BDE8104007231B
:10AE900014F080BF003A040010B5012104460C30C4
:10AEA00013F04DFC2146034A0078BDE81040022310
:10AEB00014F070BFD03904002DE9F04788461646DB
:10AEC0008246002872D0BFF35B8FDFF8E490002346
:10AED00059E8004F49E80032002AF9D1BFF35B8FEF
:10AEE000002C63D02046FEF7E5FE324D0C2303FB19
:10AEF000005027464388534511D0BFF35B8F59E874
:10AF0000003F49E80072002AF9D1BFF35B8F002BA4
:10AF10004CD01F463846BDE8F047FEF76BBFA6424F
:10AF200008D0204613F059FB328AF16804F10C0076
:10AF300013F0CAFB2046FEF7BDFE0C2606FB0050B0
:10AF40004368ABB1B8F1000F12D12046FEF7B2FE54
:10AF500006FB005001214268D2E90003127A03F097
:10AF60001F06B1405B09DAB100EB830014F06DFEFF
:10AF70002046FEF79FFE0C2606FB00508368002B40
:10AF8000C8D02046FEF796FE704305F800802046A4
:10AF9000FEF790FE06FB0055A86811F0C7FBB9E765
:10AFA000C94300EB830014F00CFFE1E7BDE8F08734
:10AFB00018020020741200202DE9F8430C4612F00C
:10AFC00073F8E368228A1978022964D0042905D02D
:10AFD0002046FEF70FFF6FF0150405E0022A08D89F
:10AFE0002046FEF707FF002412F072F82046BDE865
:10AFF000F88358783E2808D1032AF1D0DB78012B5A
:10B0000001D00A2B47D1032604E014F00CFE0646BB
:10B01000F0073ED504F10C05284613F0A8FB0121EA
:10B0200007462846B4F8109013F081FB0221284609
:10B0300013F085FB804600783E2816D1E3681B7824
:10B04000012B31D00A2B2FD002251A4A1A491B484E
:10B0500041F2F30313F093F8002383F31188BFF355
:10B060006F8F0323184602DF04E014F0DCFDC107F4
:10B070000546EAD5124A98F800000623214614F046
:10B0800089FEAA0712D56369A4F8109013FA87F70E
:10B09000E760B307A7D521460A4813F0A7FA0A4983
:10B0A0000A4817F063FE9EE70325E3E72046FEF714
:10B0B000A1FEEEE7BB460400EF460400084704008B
:10B0C000A03904001C0200209C030020700A00200C
:10B0D00070B5314813F09FFA044600285AD000F1A9
:10B0E0000C05284613F033FB022805D004282FD086
:10B0F0002046FEF77FFE21E0238A032BF8D90421A6
:10B10000284613F01CFBFF22438806882276228AF9
:10B11000C6F30B009A426083EAD10F2101F036FC9E
:10B1200005460028E4D001F04DFC320B2076214684
:10B13000284615F07EF8284601F028FB174BD3F877
:10B1400044313BB3BDE870401549164817F00EBEB8
:10B150002846022113F0F3FA054600783E2812D063
:10B1600014F061FD10F002060DD10F4A0F4910488E
:10B1700040F6634313F003F886F31188BFF36F8F33
:10B180000323184602DF0B4A28780423214614F0D3
:10B1900001FEADE770BD00BF1C020020D8000020FA
:10B1A0009C030020700A0020BB46040025470400D1
:10B1B00008470400E039040008B500F0FDFFBFF3C4
:10B1C0005B8F084B1A68BFF35B8F02F00B02BFF373
:10B1D0005B8F53E8001F43E800200028F9D1BFF33C
:10B1E0005B8F08BDAC01002010B5C1E900239DF8BC
:10B1F00008300B720C46FEF75DFD034B0C2202FB80
:10B2000000335C6010BD00BF74120020F8B5024628
:10B210000B46104813F0E6F90446C0B104210C3087
:10B2200013F041FA2046FEF745FD0B4D0C2707FBB6
:10B230000050002646802046FEF73CFD07FB0050EC
:10B2400086602046FEF736FD07FB00556E602046FF
:10B25000F8BD00BFA008002074120020034B014677
:10B26000D3F8640182689268104700BFD8000020BC
:10B2700008B50448042114F0E8FCBDE8084000F0DB
:10B280009BBF00BFAC01002000487047534704003B
:10B29000014811F03FBC00BF8C03002070B505468B
:10B2A0000C4659B94FF0FF304FF0FF31FFF7AEFFBA
:10B2B000044618B96FF06805284670BD2046FEF7B1
:10B2C000F9FC164B0C2202FB0033A61830465D80B9
:10B2D00013F04DFA03280BD90321304613F016FA68
:10B2E0000580238A033B83700121304613F016FA50
:10B2F00040F635439D4208D12046FFF7AFFF054693
:10B3000048B12046FEF776FDD6E70548214617F0FE
:10B3100066FCFFF7BDFF0025CEE700BF74120020DA
:10B320002402002038B502460B46244DD5F84C11B6
:10B3300009B9002038BD05F5947011F031FA0028E4
:10B34000F7D10022002305F5A67011F0BDF90446DF
:10B3500068B91B4A1B491C4840F6734312F00FFFA3
:10B3600084F31188BFF36F8F0323184602DFD5F8EB
:10B37000400120B1FEF73EFD0023C5F840312046D4
:10B3800013F05FF9C5F840012046FFF767FF98B159
:10B390000E4811F0CBF92046FEF78CFC0C4B0C222A
:10B3A00002FB00301F2140882246FFF785FD204622
:10B3B000FEF720FDFFF76CFF0120BBE7D80000205F
:10B3C000BB4604005A47040008470400000200205E
:10B3D000741200202DE9F04F064687B017460C4640
:10B3E00069B94FF0FF304FF0FF31FFF70FFF044610
:10B3F00060B96FF06805284607B0BDE8F08F887A1D
:10B40000FEF750FC454B834240F082800122002130
:10B41000684617F0FDFB2046FEF74CFCDFF800A164
:10B420000C2303FB00A0C0F808D0204613F009F954
:10B4300001463046FFF732FF054618B12046FEF7B9
:10B44000D9FCD8E717F0DEFF364B1A58364B9A4234
:10B4500020D1DFF8D8B0364817F0D6FB002181465E
:10B460004FF4A020FFF75EFF804688B9314A32488A
:10B470004FF4F973594612F082FE3048314612F00B
:10B480007EFE88F31188BFF36F8F0323184602DF17
:10B490004C45E0D14FF4A0220023684611F080F91A
:10B4A000804698B14FF4FC73224A2549224812F095
:10B4B00066FE24484246314612F061FE002383F3C3
:10B4C0001188BFF36F8F0323184602DF2046FEF773
:10B4D000F1FB0C2358431AF80060AEB12046093E38
:10B4E000FEF788FC092E0CD8DFE806F0150B0B08D8
:10B4F000050B0B0B0B126FF00B057CE76FF00C05C7
:10B5000079E76FF0040576E7002F97D03C6072E78B
:10B510006FF015056FE76FF06E056CE7A00800206F
:10B520007412002008000000E01000205E470400B4
:10B5300024020020BB4604000847040066470400BC
:10B54000864704008F470400F7B50022114640F6F5
:10B550000340FFF73FFF0446002853D1FFF72CFEBE
:10B56000214601AA41F20300FFF734FF04460028F8
:10B5700048D1019AB24DD168D1F80100D1F8051037
:10B5800005F1780303C31046FEF734FC214601AAF7
:10B5900041F20100FFF71EFF044698BB0198C36803
:10B5A0005A7885F870205A88A5F872201A7985F89B
:10B5B0007120B3F80720A5F87420B3F80530A5F87A
:10B5C0007630FEF717FC214601AA41F20200FFF790
:10B5D00001FF0446B0B9019FFA6805F18006531CCB
:10B5E000413218685968344603C4083393422646EA
:10B5F000F7D13846FEF7FEFB95F87C30580604D4A8
:10B600006FF01204204603B0F0BD01AA002142F2FF
:10B610000300FFF7DFFE04460028F3D1019B894EAB
:10B62000DA68D2F80100D2F8051003C61846FEF712
:10B63000E1FB214601AA42F20200FFF7CBFE0446DD
:10B640000028DFD1019CE368B3F8012091B249B131
:10B65000D97839B1A5F80421DA78114606F1280025
:10B6600017F0D6FA2046FEF7C5FB95F87C6016F079
:10B67000200618D14FF0FF304FF0FF31FFF7C6FD25
:10B68000044600287DD002210C3013F017F8012366
:10B69000037046702146324640F66D40FFF79AFE31
:10B6A00004460028AED195F89C30190712D501AA9E
:10B6B000002142F21C00FFF78DFE04460028A1D1B4
:10B6C0000198C368D3F80120D3F80530C5E93823C1
:10B6D000FEF790FB4FF0FF304FF0FF31FFF796FD84
:10B6E000044600284DD008210C3012F0E7FF95F8F1
:10B6F000D83095F8D92013F0020F14BF2F230F2351
:10B7000012F0090F18BF43F40063002203701B0AF4
:10B7100043708270C270027142718271C27121469F
:10B7200042F20100FFF756FE044600287FF46AAF9C
:10B7300095F87C30B5F804119A0625D4C9B901AA48
:10B7400041F20500FFF746FE044600287FF45AAF99
:10B75000B5F80431019C4BB9E368B3F80120A5F8B2
:10B7600004219A883848114617F052FA2046FEF70D
:10B7700041FB4FF0FF304FF0FF31FFF747FD04462C
:10B7800038B96FF068043DE70029F2D16FF0040486
:10B7900038E708210C3012F091FF10230370882342
:10B7A000437002230022C370202382700271427111
:10B7B0008271C371214640F60140FFF70BFE04463B
:10B7C00000287FF41FAF014601AA4FF60140FFF7A2
:10B7D00001FE044620BB0198FEF70CFB214601AA9E
:10B7E0004FF60240FFF7F6FD0446C8B90198C3685A
:10B7F000B3F80130A5F8C130FEF7FCFA95F8C13076
:10B800005B070DD501AA21464FF60340FFF7E2FD85
:10B8100030B90198C3685B7885F8C030FEF7EAFA62
:10B8200000F08CFB044600287FF4ECAE01F080FCB5
:10B83000044600287FF4E6AEFFF71AFDE2E600BFFB
:10B84000D8000020B0010020E001002010B5FFF773
:10B850007BFE034B1B6813B1BDE81040184710BDB9
:10B860008C12002073B5254D0646D5F8640116F0FC
:10B87000F1FF00283BD06FF0020105F1D40014F075
:10B88000A0FA012114F0E1F910EA010432D11C4BB5
:10B890001E600A4605F5947017F0BAF905F5A67012
:10B8A00017F05EF9174817F08CFA174915480094FD
:10B8B0006FF007034FF4966211F032F91349114803
:10B8C00017F0ACFAD5F86401114983681B689847F2
:10B8D000044648B926B902B0BDE87040FFF734BE4F
:10B8E00005F1C40011F016F9204602B070BD6FF0EA
:10B8F0001204F9E76FF07704F6E700BFD8000020E4
:10B900008C120020700A0020402E0020D447040032
:10B91000B9AF0200F0B587B006460DF10B0100206B
:10B9200000F0F6FA044600283CD14FF0FF304FF00B
:10B93000FF31FFF76BFC0746B8B319210C3012F04A
:10B94000BDFE21460546192217F0D9FC9DF80B30A3
:10B95000174A2B7306F17001681D14F085F993895D
:10B960002B80D3896B80B6F88830A5F80D30B6F8F7
:10B970008A30A5F80F30B6F88C30A5F81130B6F83B
:10B980008E30A5F8133001230093D432072303A986
:10B990003846FFF729FC2246394642F20D00FFF7F0
:10B9A00019FD0446204607B0F0BD6FF06804F9E7C2
:10B9B000D800002030B54FF0FF3087B04FF0FF3196
:10B9C000FFF724FC044670B10025084A009503A93E
:10B9D0000723FFF709FC2A46214642F20E00FFF733
:10B9E000F9FC07B030BD6FF06800FAE7AC01002049
:10B9F0002DE9FF41464BB0F80170198847F47042B9
:10BA000091424FF0000602BF1E80424B1E78C37861
:10BA1000012B08BF404B00F10404054620460CBF33
:10BA200093F86F804FF0000814F09CF82146B0B1F5
:10BA300002A814F08CF8D5F81130CDF80130B5F823
:10BA40001530ADF8053001238DF80030E87890B15D
:10BA50001321384614F0D3FA04B0BDE8F081404613
:10BA600014F071FB014602A814F0FEF82146684666
:10BA700014F0FAF8EAE7022202A901F043FAEB789F
:10BA8000044623B925486FF0800114F09AF9002C80
:10BA9000DED02046B5F8013020F8703B02A914F042
:10BAA000E3F8B5F81730A4F88630B5F81930A4F8E3
:10BAB0008C30B5F81B30A4F88E30EB78E3700022A0
:10BAC00062726BB9694604F17E0014F0CDF8217AF8
:10BAD000114BC1EBC101194404F1770014F0C4F813
:10BAE0000721204600F098FE26B16672012120460B
:10BAF00000F092FE204600F097FF204600F046FE40
:10BB0000E378002BA8D1032014F04DFBA4E700BF7D
:10BB100098290020B3290020D8000020AC01002083
:10BB200000B5C1680B7889B033B1022B2ED109B0B2
:10BB30005DF804EB14F03BBA8DF80030B1F8013039
:10BB4000ADF80130CB788DF80330B1F80B30ADF89B
:10BB50001730B1F80D30ADF81930B1F80F30ADF83D
:10BB60001B304B7C8DF81D3001A8043114F07CF89B
:10BB7000084B68461A689B88CDF80B20ADF80F304B
:10BB8000CDF81120ADF81530FFF732FF09B05DF8A0
:10BB900004FB00BF8446040038B5032104460C3082
:10BBA00012F0CDFDE3680578B0F80100197840F691
:10BBB000354398420AD02246FFF77EF935B1044852
:10BBC00010F0B4FDBDE83840FFF762BB38BD00BFE0
:10BBD0000002002038B5042104460C3012F0AFFDFD
:10BBE0004578017840882246FFF766F935B1044868
:10BBF00010F09CFDBDE83840FFF74ABB38BD00BFE0
:10BC00000002002070B54FF0FF320D464FF0FF33B9
:10BC100000210646FFF7DCF8044660B90A4A0B49E2
:10BC20000B481A2312F0ABFA84F31188BFF36F8F1D
:10BC30000323184602DF022104F10C0012F03EFD3E
:10BC400006704570204670BDDD4704005A47040069
:10BC500008470400F8B50A4DEF7906460024E3B220
:10BC60009F4202D86FF0010007E02946304614F0E9
:10BC700062FA0735631C08B12046F8BD1C46EEE7A2
:10BC8000D800002070B5144E06223146044617F045
:10BC90003EFBE0B14FF0FF304FF0FF31FFF7B6FA57
:10BCA0000546B0B1062221460C3012F00DFD0022EF
:10BCB000294642F20500FFF78DFB48B9334622685A
:10BCC00043F86929A288B280012283F86820002005
:10BCD00070BD6FF06800FBE74101002037B50446F6
:10BCE0000D4689B11849284614F025FA60B9174A5B
:10BCF0002968C4EBC404A3181151AA889A80AA79B0
:10BD00009A71002003B030BD684613F012FF00287E
:10BD1000F8D16846FFF79EFF0028F5DA0B4A009835
:10BD20009DF80610C4EBC404A3181051BDF804001C
:10BD300098809971002DE4D012592A609A88AA80BF
:10BD40009B79AB71DDE700BF77460400D800002087
:10BD500070B5044611B16FF0150070BD80B11C497B
:10BD600014F0E9F960B92046FFF774FF002829DADA
:10BD70002378012BEFD1A37903F0C003C02BEAD1C4
:10BD8000144DEB79012B20D0BFF35B8FD5F8D43065
:10BD9000BFF35B8FDB0707D4002CDCD00C492046B7
:10BDA00014F0C9F90028D6D1EE792146731C30462B
:10BDB000EB71FFF793FF08B93046CEE7EB79013B13
:10BDC000EB71CAE76FF07700C7E76FF00B00C4E7CD
:10BDD00077460400D80000202DE9F3410446D8B18D
:10BDE00001AA002141F20900FFF7F4FA054698B9CB
:10BDF000019E1249D6F80C8008F101070622384648
:10BE000017F085FA28B10E490622384617F07FFA56
:10BE100030B93046FDF7EEFF002002B0BDE8F081FA
:10BE2000D8F80130C4F80130BB88A4F8053030469A
:10BE30002570FDF7DFFF0120EFE700BF8446040017
:10BE40007E46040007B56846FFF7C6FF044BD8716D
:10BE500018B169460020FFF741FF03B05DF804FB0D
:10BE6000D8000020F0B5294DEE7989B0002E46D1DA
:10BE700095F8C230DB0722D56A4631464FF60940B5
:10BE8000FFF7A8FAD8B9DDF800C0DCF80C406378F9
:10BE9000012B1E4628BF012673B1A31C02AA12342F
:10BEA00018685968174603C70833A3423A46F7D1C2
:10BEB000186838609B88BB806046FDF79BFFEE7179
:10BEC000002416260127EB79E0B2834202D8B3B1F1
:10BED000002012E008AB06FB0033694653F8182C2B
:10BEE00033F8143CCDF80120ADF805308DF8007022
:10BEF000FFF7F4FE01340028E5D009B0F0BD0021C1
:10BF0000084609B0BDE8F040FFF722BFD800002086
:10BF100038B50C4661B108480578012D04D10130CF
:10BF2000FFF7B0FE08B138BD002525700020FAE704
:10BF30006FF01500F7E700BFD800002010B50A4CDD
:10BF4000E3790BB1002010BDFFF77CFF0028FAD188
:10BF5000E379002BF6D1FFF785FF0028F3D1601CB1
:10BF6000BDE81040FFF78EBED800002070B5054632
:10BF700086B00E464FF0FF304FF0FF31FFF746F925
:10BF80000446A0B102210C3012F098FB094A467019
:10BF9000057003A9204600950523FFF725F9002227
:10BFA000214642F20C00FFF715FA06B070BD6FF0A3
:10BFB0006800FAE7AC01002008B50C4B02464009C6
:10BFC00003EB800014F0E9F802F01F0340FA03F3DA
:10BFD00013F0010006D122B9054814F0DEF840F351
:10BFE000C01008BD6FF07700FBE700BF9012002083
:10BFF000AC0100200A4ABFF35B8F430902EB8302C6
:10C0000000F01F0001238340DB4352E8000F18407B
:10C0100042E800010029F8D1BFF35B8F704700BFF1
:10C020009012002030B587B05D480022002310F048
:10C0300083FA002840F092805A485A4D14F0ADF827
:10C0400010F0010345D02B1D93E8070006AB03E970
:10C050000700554814F0A1F8C0F34013514814F0FC
:10C060009CF8014600286BD073B10C224F490DEBB0
:10C07000020017F04CF900286BD000210846FFF7AA
:10C0800075FF0446002865D100239DF80C00ADF82B
:10C090000930BDF80E30ADF80530BDF81030ADF800
:10C0A0000730431E8DF8040058420DF10901584134
:10C0B00014F066F8044600284CD14FF0FF304FF0E2
:10C0C000FF31FFF7A3F80546002849D16FF0680457
:10C0D00040E03548364A14F060F810F0800F0ED07A
:10C0E0009089D1891269ADF80E004FF48074ADF8D3
:10C0F0000C40ADF81010ADF812300592A9E72D4CA8
:10C100002068616803AB03C3A068186092F8D93057
:10C11000180748BF0523234848BF8DF80D3014F099
:10C120003CF8810706D53023ADF810306023ADF818
:10C130000E308EE71B4814F030F84207F3D488E73E
:10C140003BB1FFF713FF044620B9184B2861C3E940
:10C1500001000024124810F067FA204607B030BDF5
:10C16000072201A90C3012F0AFFA2246294642F20A
:10C170000B00FFF72FF904460028EBD19DF80D10B6
:10C18000012001F00101FFF7F1FE04460028E1D192
:10C1900006AA12E90700054B83E80700D9E700BFAC
:10C1A000AC12002090120020AC010020A012002050
:10C1B000D8000020FC38040010B5094C44220021AE
:10C1C000204617F09CF804F11C0016F038FC04F12E
:10C1D000300016F034FC034B00221A6010BD00BF83
:10C1E00090120020DC120020032838B5054603D148
:10C1F000BDE83840FFF716BFFFF7DEFE0446C8B9BA
:10C20000BFF35B8F0C4B6A0903EB820305F01F0140
:10C2100001228A4053E8000F104343E8000100293F
:10C22000F8D1BFF35B8FFFF7FDFE044610B128463F
:10C23000FFF7E0FE204638BD901200202DE9F04FB8
:10C2400000F10C068DB00446304612F080FA0190E1
:10C250007F48DFF800A213F0A0FF00F001037C4844
:10C26000049313F09AFFC0F380030393019B13B967
:10C270000DB0BDE8F08F049B13B9039B002BF7D0E2
:10C28000238A082BF4D90921304612F058FA037A90
:10C29000228A01339A420546EAD30123ADF82C30B5
:10C2A0007F238DF82630037A034400F101085B7A7E
:10C2B0008DF82530FF238DF824300023ADF82A3087
:10C2C00002788DF82720042A9CBF634B9B5CADF855
:10C2D0002830037A5E48029313F05FFF00F00107F5
:10C2E0005B4813F05AFF81466FB1BDF828305A07FA
:10C2F00009D5297A3046013112F019FA019B013B28
:10C30000DBB20193B2E7404613F02CFC00284ED07C
:10C31000414606A813F01BFC17B919F0040F5CD1B5
:10C32000DAF80030B3B1304612F021FA029BB4F8CB
:10C3300010B0DAF800702382814633469DF827203A
:10C340009DF9251006A8B8476369A4F810B013FA40
:10C3500089F3E36006AB0893404B1A68002A3AD091
:10C36000136803B1083B52F8081CB9B11F46A2F18B
:10C3700008033046059312F0FAF9029BB4F810B0A6
:10C380002382059B81461B68314608A8984763694C
:10C39000A4F810B013FA89F3E3603B46DBB19F6861
:10C3A0001A68B7B1083F002AE3D13B46F7E76B783C
:10C3B000FF2B09D12A4B186806909A889B798DF833
:10C3C0001E30ADF81C20A7E7414613F0BCFE034623
:10C3D000F1E7002ACDD1002308931D48BDF828308D
:10C3E00013F0DBFE10F0010783D1DB0781D50322B8
:10C3F00006A9384600F086FD814600283FF479AF53
:10C40000022013F0D0FED5F80130C9F87E30B8F81C
:10C410000430A9F8823098F8063089F8843048460C
:10C4200013F0C3FD60B11F2389F80930394648462F
:10C4300000F0F2F9484600F0A9F9FFF7F3FD58E7DC
:10C440004846022100F0E8F9484600F09FF950E71D
:10C4500090120020DC12002013480400D4120020A7
:10C4600077460400F8B50546224813F096FE4307C8
:10C470000F463CD52A78012A03D96FF015042046CF
:10C48000F8BD6B780F2BF8D86888031F9BB243F672
:10C49000FC74A342F1D8A9880B1F9BB2A342ECD82D
:10C4A0008842EAD37AB914480022002310F044F8F5
:10C4B00004460028E3D1FFF77FFD044640B10E4853
:10C4C00010F0B2F8DBE713F059FE0028EBD1D4E707
:10C4D00028686968094E0A4B03C6A8683060204680
:10C4E0001F60FFF781FE044606F12400E8E76FF0C5
:10C4F0000A04C4E7AC010020C012002094120020FE
:10C50000DC120020024B0020186013F04CBE00BF6C
:10C51000DC12002008B5034813F03FFE00F00100D4
:10C5200008BD00BF9012002070B50C4B1C6805467A
:10C5300044B154F8143C143C13B1697A2846984726
:10C540006469F5E7064C074EB44200D370BD23681A
:10C5500013B1697A284698471834F5E71413002078
:10C56000A0380400B838040010B50446FDF7A2FB5B
:10C57000044901EB0011204613F035FBBDE81040E3
:10C58000FEF786BEE012002070B5D1E90156002208
:10C590000446C1E90122064816F021FB3DB13146AF
:10C5A00020462B466FF06D02BDE87040184770BD05
:10C5B000D807002013B5837A072B044626D1BFF392
:10C5C0005B8F043050E8003F43F4806240E8002174
:10C5D0000029F7D1BFF35B8F590517D413F0FCFD89
:10C5E000C2030DD5E17889B9094B93F8D930DB073F
:10C5F0000CD5022300911A46204613F041FD05E0B8
:10C60000204613F022FDA37A072BEBD002B010BD19
:10C61000D800002070B505460F480022002310F016
:10C62000BFF8B8B90D4B1C6834B154F80C3C143C3D
:10C6300003B198476469F7E7094C0A4EB44204D342
:10C640002846BDE8704010F065BAA36803B198476A
:10C650001834F3E770BD00BFB407002014130020A6
:10C66000A0380400B83804002DE9F843DFF85480FE
:10C67000044620270025EFF3118387F31288BFF3C8
:10C680006F8FE16929B983F31188BFF36F8FBDE81C
:10C69000F883206A0A68E261814208BF226283F35C
:10C6A0001188BFF36F8FD1E901694046C1E9015597
:10C6B00016F095FA1EB1002249462046B047FEF713
:10C6C000E7FDD8E7D80700200448B0F80431002B74
:10C6D00000F5847008BF0020704700BFD80000201C
:10C6E00030B5044616F08EFE0D4A0D460D49085829
:10C6F000D2F8901088428BB005D120460BB0BDE82F
:10C700003040FFF7B1BF24342146104616F02EFB0F
:10C710001DB16946204616F039FB0BB030BD00BF95
:10C72000E01000200800000038B5002204468A42CC
:10C7300002D10024204638BD04F1C0030120BFF31C
:10C740005B8F53E8005F002D04D143E8000CBCF17F
:10C75000000FF6D1BFF35B8F02D0C8340244E6E786
:10C76000002CE6D0C0220021204616F0C8FD04F1BE
:10C770004000044916F02BFB034904F1240016F095
:10C78000CAFAD7E745D00200E501040008B5C03079
:10C79000BFF35B8F50E8003F013B40E80032002AC6
:10C7A000F8D1BFF35B8F3BB904480FF0BFFFBDE882
:10C7B0000840034810F0AEB908BD00BFB407002020
:10C7C000BC03002010B5044613F081FD10F06CFC92
:10C7D000104BD3F8201104F1B40249B9C4F8B410D5
:10C7E000D3F8241189B9C3E9482210F071FC06E09E
:10C7F0008A4208D110F06CFC2046FFF7C7FFBDE865
:10C800001040FEF745BD0968E7E70A60C3F8242138
:10C81000EBE700BFD800002070B5857A8D42044652
:10C8200027D0817255B1022D0BD0A37A072B20D8C7
:10C83000DFE803F0200E581F1F1F1F1813F047FDDD
:10C84000F3E78378012BF0D1403016F0CEFAECE715
:10C850003C4D05F584766169002960D1BDE87040E2
:10C86000FEF716BD3848002110F086FF0023C4E90A
:10C870000D3370BD082DFCD801A353F825F000BF7F
:10C8800073C80200A5C80200D1C80200CBC80200CC
:10C89000DBC80200DBC80200D1C8020073C8020076
:10C8A00073C8020004F14005284616F09EFA20469F
:10C8B0000121FFF715FF204613F0B2FC28460022A5
:10C8C000BDE87040002310F0C9B9022013F06BFCE2
:10C8D000637A13B12046FFF727FE2046BDE870407B
:10C8E000FFF754BFA378012BC3D1164B9D8A002DAF
:10C8F000BFD00A235D434FF4004640F2E7300021E9
:10C900004FF47A720023C5FB0601FAF7F9FB0246E1
:10C910000B4604F14000BDE8704010F06BB9A2690D
:10C920000B686361914208BFA3612046FFF72CFEAC
:10C93000B5F80431002B14BF304600200FF0F6FE8E
:10C9400089E700BFD8000020CC030020F8B50746D7
:10C9500009480D46164613F0BAFC044650B18378D8
:10C960001F4203D1BDE8F840FFF710BF3146A8478A
:10C970002046F7E7F8BD00BF200B00200249002247
:10C980000120FFF7E3BF00BFB5C5020038B505467B
:10C990000B480C4613F09BFC034670B1827A012AC7
:10C9A00002D0073A012A06D81A88AA4202D19A78F8
:10C9B000144203D11846FFF7E9FE0023184638BD9C
:10C9C000200B0020034BC01A034BC0105843C0B2C9
:10C9D000704700BF200B0020295C8FC270B51C4639
:10C9E000144305460E460AD016F00CFD0B490858B4
:10C9F0000B49D1F89010884204BF00221346094920
:10CA0000002D14BF2846084611F0ECFD044618B16D
:10CA1000711D0C3011F047FE204670BD080000006B
:10CA2000E0100020F007002010B50446054810F083
:10CA300071F8204600F048FC2046BDE81040FFF7A2
:10CA400073BD00BFAC0300202DE9F04F87B0002379
:10CA500003930593AB4B5A8B32B1AB4DD5F82041C4
:10CA600034B907B0BDE8F08F1B68002BF5D1F8E7AB
:10CA700054F8B43903B1B43BA449002601E01C4684
:10CA80001346B5F80421002A00F03981D5F81021A9
:10CA90004AB904F1B406002BE3D0D3F8B420002A3D
:10CAA000EDD0B43AEBE70A68002AF2D0D4F8A0201F
:10CAB000002AEED0D4F8A420002AEAD0D4F8A82086
:10CAC000002AE6D0A37A072B64D12046904700289D
:10CAD00060D004F1B80013F07FFB02285ADC204636
